{
	"data": {
		"bytecode": {
			"linkReferences": {},
			"object": "60806040523480156200001157600080fd5b50336000806101000a81548173ffffffffffffffffffffffffffffffffffffffff021916908373ffffffffffffffffffffffffffffffffffffffff16021790555060018060003373ffffffffffffffffffffffffffffffffffffffff1673ffffffffffffffffffffffffffffffffffffffff16815260200190815260200160002060006101000a81548160ff02191690831515021790555060016002819055506040518060400160405280600281526020017f5943000000000000000000000000000000000000000000000000000000000000815250600360008060ff168152602001908152602001600020908051906020019062000112929190620001fb565b506040518060400160405280600381526020017f4d444e000000000000000000000000000000000000000000000000000000000081525060036000600160ff168152602001908152602001600020908051906020019062000175929190620001fb565b506040518060400160405280600381526020017f48575a000000000000000000000000000000000000000000000000000000000081525060036000600260ff1681526020019081526020016000209080519060200190620001d8929190620001fb565b506003600460006101000a81548160ff021916908360ff16021790555062000310565b8280546200020990620002da565b90600052602060002090601f0160209004810192826200022d576000855562000279565b82601f106200024857805160ff191683800117855562000279565b8280016001018555821562000279579182015b82811115620002785782518255916020019190600101906200025b565b5b5090506200028891906200028c565b5090565b5b80821115620002a75760008160009055506001016200028d565b5090565b7f4e487b7100000000000000000000000000000000000000000000000000000000600052602260045260246000fd5b60006002820490506001821680620002f357607f821691505b602082108114156200030a5762000309620002ab565b5b50919050565b61221180620003206000396000f3fe608060405234801561001057600080fd5b50600436106100a95760003560e01c80633f8a37dc116100715780633f8a37dc1461019e578063877b9a67146101ce578063c67e96d2146101fe578063ceef5b951461022f578063d16585461461025f578063f2fde38b1461028f576100a9565b80630dc3be9e146100ae57806320694db0146100de57806334becfb41461010e578063361459961461013e57806338a7543e1461016e575b600080fd5b6100c860048036038101906100c391906115c2565b6102ab565b6040516100d59190611709565b60405180910390f35b6100f860048036038101906100f3919061172b565b61054b565b6040516101059190611773565b60405180910390f35b6101286004803603810190610123919061172b565b6106dc565b6040516101359190611773565b60405180910390f35b610158600480360381019061015391906117f3565b61086e565b6040516101659190611773565b60405180910390f35b6101886004803603810190610183919061172b565b610afa565b6040516101959190611773565b60405180910390f35b6101b860048036038101906101b3919061187b565b610b1a565b6040516101c591906118f2565b60405180910390f35b6101e860048036038101906101e3919061172b565b610bc5565b6040516101f59190611773565b60405180910390f35b610218600480360381019061021391906115c2565b610c1b565b604051610226929190611923565b60405180910390f35b610249600480360381019061024491906117f3565b610d01565b6040516102569190611773565b60405180910390f35b6102796004803603810190610274919061194c565b6110e0565b6040516102869190611773565b60405180910390f35b6102a960048036038101906102a4919061172b565b611266565b005b6102b3611444565b6000600560008573ffffffffffffffffffffffffffffffffffffffff1673ffffffffffffffffffffffffffffffffffffffff168152602001908152602001600020600001541415610339576040517f08c379a000000000000000000000000000000000000000000000000000000000815260040161033090611a31565b60405180910390fd5b600560008473ffffffffffffffffffffffffffffffffffffffff1673ffffffffffffffffffffffffffffffffffffffff16815260200190815260200160002060040160009054906101000a900460ff1660ff168260ff1611156103d1576040517f08c379a00000000000000000000000000000000000000000000000000000000081526004016103c890611ae9565b60405180910390fd5b606060005b600460009054906101000a900460ff1660ff168160ff16101561048e576000600560008773ffffffffffffffffffffffffffffffffffffffff1673ffffffffffffffffffffffffffffffffffffffff16815260200190815260200160002060020160008660ff1660ff16815260200190815260200160002060008360ff1660ff168152602001908152602001600020541461047b5761047481610b1a565b915061048e565b808061048690611b38565b9150506103d6565b5060006040518060600160405280600560008873ffffffffffffffffffffffffffffffffffffffff1673ffffffffffffffffffffffffffffffffffffffff16815260200190815260200160002060030160008760ff1660ff16815260200190815260200160002060009054906101000a900473ffffffffffffffffffffffffffffffffffffffff1673ffffffffffffffffffffffffffffffffffffffff1681526020018381526020018560ff168152509050809250505092915050565b60008060009054906101000a900473ffffffffffffffffffffffffffffffffffffffff1673ffffffffffffffffffffffffffffffffffffffff163373ffffffffffffffffffffffffffffffffffffffff16146105dc576040517f08c379a00000000000000000000000000000000000000000000000000000000081526004016105d390611bd4565b60405180910390fd5b60001515600160008473ffffffffffffffffffffffffffffffffffffffff1673ffffffffffffffffffffffffffffffffffffffff16815260200190815260200160002060009054906101000a900460ff1615151461063957600080fd5b60018060008473ffffffffffffffffffffffffffffffffffffffff1673ffffffffffffffffffffffffffffffffffffffff16815260200190815260200160002060006101000a81548160ff0219169083151502179055508173ffffffffffffffffffffffffffffffffffffffff167f27aa0506e4da65b95bd4f61c697076f8c7dcb69b2c0937d11efa9ceaa3bf5a9560405160405180910390a260019050919050565b60008060009054906101000a900473ffffffffffffffffffffffffffffffffffffffff1673ffffffffffffffffffffffffffffffffffffffff163373ffffffffffffffffffffffffffffffffffffffff161461076d576040517f08c379a000000000000000000000000000000000000000000000000000000000815260040161076490611bd4565b60405180910390fd5b60011515600160008473ffffffffffffffffffffffffffffffffffffffff1673ffffffffffffffffffffffffffffffffffffffff16815260200190815260200160002060009054906101000a900460ff161515146107ca57600080fd5b6000600160008473ffffffffffffffffffffffffffffffffffffffff1673ffffffffffffffffffffffffffffffffffffffff16815260200190815260200160002060006101000a81548160ff0219169083151502179055508173ffffffffffffffffffffffffffffffffffffffff167fee5d7d94405e51eec1bd7f59c36572787d25afb6c85e3a897bb782f08aac7d4460405160405180910390a260019050919050565b60006001151561087d33610bc5565b1515146108bf576040517f08c379a00000000000000000000000000000000000000000000000000000000081526004016108b690611c66565b60405180910390fd5b6000600560008873ffffffffffffffffffffffffffffffffffffffff1673ffffffffffffffffffffffffffffffffffffffff16815260200190815260200160002090506000816000015414610949576040517f08c379a000000000000000000000000000000000000000000000000000000000815260040161094090611d1e565b60405180910390fd5b60018660ff161461098f576040517f08c379a000000000000000000000000000000000000000000000000000000000815260040161098690611dd6565b60405180910390fd5b60008160020160008860ff1660ff16815260200190815260200160002060008760ff1660ff1681526020019081526020016000205414610a04576040517f08c379a00000000000000000000000000000000000000000000000000000000081526004016109fb90611d1e565b60405180910390fd5b6002548160000181905550338160030160008860ff1660ff16815260200190815260200160002060006101000a81548173ffffffffffffffffffffffffffffffffffffffff021916908373ffffffffffffffffffffffffffffffffffffffff1602179055508383826001019190610a7c92919061147e565b50428160020160008860ff1660ff16815260200190815260200160002060008760ff1660ff1681526020019081526020016000208190555060018160040160006101000a81548160ff021916908360ff160217905550600160026000828254610ae59190611e00565b92505081905550600191505095945050505050565b60016020528060005260406000206000915054906101000a900460ff1681565b6060600360008360ff1660ff1681526020019081526020016000208054610b4090611e85565b80601f0160208091040260200160405190810160405280929190818152602001828054610b6c90611e85565b8015610bb95780601f10610b8e57610100808354040283529160200191610bb9565b820191906000526020600020905b815481529060010190602001808311610b9c57829003601f168201915b50505050509050919050565b6000600160008373ffffffffffffffffffffffffffffffffffffffff1673ffffffffffffffffffffffffffffffffffffffff16815260200190815260200160002060009054906101000a900460ff169050919050565b60008060005b600460009054906101000a900460ff1660ff168160ff161015610cd6576000600560008773ffffffffffffffffffffffffffffffffffffffff1673ffffffffffffffffffffffffffffffffffffffff16815260200190815260200160002060020160008660ff1660ff16815260200190815260200160002060008360ff1660ff1681526020019081526020016000205414610cc3576001819250925050610cfa565b8080610cce90611b38565b915050610c21565b5060006001600460009054906101000a900460ff16610cf59190611eb7565b915091505b9250929050565b600060011515610d1033610bc5565b151514610d52576040517f08c379a0000000000000000000000000000000000000000000000000000000008152600401610d4990611c66565b60405180910390fd5b6000600560008873ffffffffffffffffffffffffffffffffffffffff1673ffffffffffffffffffffffffffffffffffffffff168152602001908152602001600020600001541415610dd8576040517f08c379a0000000000000000000000000000000000000000000000000000000008152600401610dcf90611a31565b60405180910390fd5b60018560ff161415610e1f576040517f08c379a0000000000000000000000000000000000000000000000000000000008152600401610e1690611f60565b60405180910390fd5b600185610e2c9190611f80565b60ff16600560008873ffffffffffffffffffffffffffffffffffffffff1673ffffffffffffffffffffffffffffffffffffffff16815260200190815260200160002060040160009054906101000a900460ff1660ff1614610ec2576040517f08c379a0000000000000000000000000000000000000000000000000000000008152600401610eb990611f60565b60405180910390fd5b600460009054906101000a900460ff1660ff168460ff1610610f19576040517f08c379a0000000000000000000000000000000000000000000000000000000008152600401610f1090612026565b60405180910390fd5b42600560008873ffffffffffffffffffffffffffffffffffffffff1673ffffffffffffffffffffffffffffffffffffffff16815260200190815260200160002060020160008760ff1660ff16815260200190815260200160002060008660ff1660ff168152602001908152602001600020819055508282600560008973ffffffffffffffffffffffffffffffffffffffff1673ffffffffffffffffffffffffffffffffffffffff1681526020019081526020016000206001019190610fdf92919061147e565b5084600560008873ffffffffffffffffffffffffffffffffffffffff1673ffffffffffffffffffffffffffffffffffffffff16815260200190815260200160002060040160006101000a81548160ff021916908360ff16021790555033600560008873ffffffffffffffffffffffffffffffffffffffff1673ffffffffffffffffffffffffffffffffffffffff16815260200190815260200160002060030160008760ff1660ff16815260200190815260200160002060006101000a81548173ffffffffffffffffffffffffffffffffffffffff021916908373ffffffffffffffffffffffffffffffffffffffff1602179055506001905095945050505050565b6000600115156110ef33610bc5565b151514611131576040517f08c379a000000000000000000000000000000000000000000000000000000000815260040161112890611c66565b60405180910390fd5b60005b600460009054906101000a900460ff1660ff168160ff1610156111eb57600360008260ff1660ff16815260200190815260200160002060405161117791906120e5565b6040518091039020848460405161118f929190612130565b604051809103902014156111d8576040517f08c379a00000000000000000000000000000000000000000000000000000000081526004016111cf906121bb565b60405180910390fd5b80806111e390611b38565b915050611134565b50828260036000600460009054906101000a900460ff1660ff1660ff168152602001908152602001600020919061122392919061147e565b506004600081819054906101000a900460ff168092919061124390611b38565b91906101000a81548160ff021916908360ff160217905550506001905092915050565b60008054906101000a900473ffffffffffffffffffffffffffffffffffffffff1673ffffffffffffffffffffffffffffffffffffffff163373ffffffffffffffffffffffffffffffffffffffff16146112f4576040517f08c379a00000000000000000000000000000000000000000000000000000000081526004016112eb90611bd4565b60405180910390fd5b60008054906101000a900473ffffffffffffffffffffffffffffffffffffffff1673ffffffffffffffffffffffffffffffffffffffff168173ffffffffffffffffffffffffffffffffffffffff16141561134d57600080fd5b600073ffffffffffffffffffffffffffffffffffffffff168173ffffffffffffffffffffffffffffffffffffffff16141561138757600080fd5b806000806101000a81548173ffffffffffffffffffffffffffffffffffffffff021916908373ffffffffffffffffffffffffffffffffffffffff1602179055508073ffffffffffffffffffffffffffffffffffffffff1660008054906101000a900473ffffffffffffffffffffffffffffffffffffffff1673ffffffffffffffffffffffffffffffffffffffff167f2ae143016adc0aa482e6ba5d9a350f3e3122aeb005ca4bf47d1d7b8221bce47260405160405180910390a350565b6040518060600160405280600073ffffffffffffffffffffffffffffffffffffffff16815260200160608152602001600060ff1681525090565b82805461148a90611e85565b90600052602060002090601f0160209004810192826114ac57600085556114f3565b82601f106114c557803560ff19168380011785556114f3565b828001600101855582156114f3579182015b828111156114f25782358255916020019190600101906114d7565b5b5090506115009190611504565b5090565b5b8082111561151d576000816000905550600101611505565b5090565b600080fd5b600080fd5b600073ffffffffffffffffffffffffffffffffffffffff82169050919050565b60006115568261152b565b9050919050565b6115668161154b565b811461157157600080fd5b50565b6000813590506115838161155d565b92915050565b600060ff82169050919050565b61159f81611589565b81146115aa57600080fd5b50565b6000813590506115bc81611596565b92915050565b600080604083850312156115d9576115d8611521565b5b60006115e785828601611574565b92505060206115f8858286016115ad565b9150509250929050565b61160b8161154b565b82525050565b600081519050919050565b600082825260208201905092915050565b60005b8381101561164b578082015181840152602081019050611630565b8381111561165a576000848401525b50505050565b6000601f19601f8301169050919050565b600061167c82611611565b611686818561161c565b935061169681856020860161162d565b61169f81611660565b840191505092915050565b6116b381611589565b82525050565b60006060830160008301516116d16000860182611602565b50602083015184820360208601526116e98282611671565b91505060408301516116fe60408601826116aa565b508091505092915050565b6000602082019050818103600083015261172381846116b9565b905092915050565b60006020828403121561174157611740611521565b5b600061174f84828501611574565b91505092915050565b60008115159050919050565b61176d81611758565b82525050565b60006020820190506117886000830184611764565b92915050565b600080fd5b600080fd5b600080fd5b60008083601f8401126117b3576117b261178e565b5b8235905067ffffffffffffffff8111156117d0576117cf611793565b5b6020830191508360018202830111156117ec576117eb611798565b5b9250929050565b60008060008060006080868803121561180f5761180e611521565b5b600061181d88828901611574565b955050602061182e888289016115ad565b945050604061183f888289016115ad565b935050606086013567ffffffffffffffff8111156118605761185f611526565b5b61186c8882890161179d565b92509250509295509295909350565b60006020828403121561189157611890611521565b5b600061189f848285016115ad565b91505092915050565b600082825260208201905092915050565b60006118c482611611565b6118ce81856118a8565b93506118de81856020860161162d565b6118e781611660565b840191505092915050565b6000602082019050818103600083015261190c81846118b9565b905092915050565b61191d81611589565b82525050565b60006040820190506119386000830185611764565b6119456020830184611914565b9392505050565b6000806020838503121561196357611962611521565b5b600083013567ffffffffffffffff81111561198157611980611526565b5b61198d8582860161179d565b92509250509250929050565b7fe29d97efb88f20ec9db4eca084ec979020ebb0b1ec8ba020eca69debaa85ec8460008201527f9ceba5bc20ebb09ceab889ebb09bec9d8020eca084eca081ec9db420ec9786ec60208201527f8ab5eb8b88eb8ba42e0000000000000000000000000000000000000000000000604082015250565b6000611a1b6049836118a8565b9150611a2682611999565b606082019050919050565b60006020820190508181036000830152611a4a81611a0e565b9050919050565b7fe29d97efb88f20ed95b4eb8bb920ecb0a8ec8898ec9d9820ebb0b1ec8ba020ec60008201527fa091eca285ec9d8420ebb09bec9d8020eca08120ec9786ec8ab5eb8b88eb8ba460208201527f2e00000000000000000000000000000000000000000000000000000000000000604082015250565b6000611ad36041836118a8565b9150611ade82611a51565b606082019050919050565b60006020820190508181036000830152611b0281611ac6565b9050919050565b7f4e487b7100000000000000000000000000000000000000000000000000000000600052601160045260246000fd5b6000611b4382611589565b915060ff821415611b5757611b56611b09565b5b600182019050919050565b7fe29d97efb88f206d73672e73656e646572eab080206f776e6572eab08020ec9560008201527f84eb8b99eb8b88eb8ba42e000000000000000000000000000000000000000000602082015250565b6000611bbe602b836118a8565b9150611bc982611b62565b604082019050919050565b60006020820190508181036000830152611bed81611bb1565b9050919050565b7fe29d97efb88f206d73672e73656e646572eab08020497373756572eab08020ec60008201527f9584eb8b99eb8b88eb8ba42e0000000000000000000000000000000000000000602082015250565b6000611c50602c836118a8565b9150611c5b82611bf4565b604082019050919050565b60006020820190508181036000830152611c7f81611c43565b9050919050565b7fe29d97efb88f20ec9db4eca084ec979020ebb0b1ec8ba020eca69debaa85ec8460008201527f9ceba5bc20ebb09ceab88920ebb09bec9d8020eca084eca081ec9db420ec9e8860208201527fec8ab5eb8b88eb8ba42e00000000000000000000000000000000000000000000604082015250565b6000611d08604a836118a8565b9150611d1382611c86565b606082019050919050565b60006020820190508181036000830152611d3781611cfb565b9050919050565b7fe29d97efb88f206eecb0a820eca091eca285ebb680ed84b0eb8a9420eca69deb60008201527faa85ec849c20eab0b1ec8ba020eab8b0eb8aa5ec9d8420ec82acec9aa9ed95b460208201527feca3bcec84b8ec9a942e00000000000000000000000000000000000000000000604082015250565b6000611dc0604a836118a8565b9150611dcb82611d3e565b606082019050919050565b60006020820190508181036000830152611def81611db3565b9050919050565b6000819050919050565b6000611e0b82611df6565b9150611e1683611df6565b9250827fffffffffffffffffffffffffffffffffffffffffffffffffffffffffffffffff03821115611e4b57611e4a611b09565b5b828201905092915050565b7f4e487b7100000000000000000000000000000000000000000000000000000000600052602260045260246000fd5b60006002820490506001821680611e9d57607f821691505b60208210811415611eb157611eb0611e56565b5b50919050565b6000611ec282611589565b9150611ecd83611589565b92508260ff03821115611ee357611ee2611b09565b5b828201905092915050565b7fe29d97efb88f20ec98acebb094eba5b820eca091eca28520ecb0a8ec8898eab060008201527f8020ec9584eb8b99eb8b88eb8ba42e0000000000000000000000000000000000602082015250565b6000611f4a602f836118a8565b9150611f5582611eee565b604082019050919050565b60006020820190508181036000830152611f7981611f3d565b9050919050565b6000611f8b82611589565b9150611f9683611589565b925082821015611fa957611fa8611b09565b5b828203905092915050565b7fe29d97efb88f20ec98acebb094eba5b820ebb0b1ec8ba020eca285eba598eab060008201527f8020ec9584eb8b99eb8b88eb8ba42e0000000000000000000000000000000000602082015250565b6000612010602f836118a8565b915061201b82611fb4565b604082019050919050565b6000602082019050818103600083015261203f81612003565b9050919050565b600081905092915050565b60008190508160005260206000209050919050565b6000815461207381611e85565b61207d8186612046565b9450600182166000811461209857600181146120a9576120dc565b60ff198316865281860193506120dc565b6120b285612051565b60005b838110156120d4578154818901526001820191506020810190506120b5565b838801955050505b50505092915050565b60006120f18284612066565b915081905092915050565b82818337600083830152505050565b60006121178385612046565b93506121248385846120fc565b82840190509392505050565b600061213d82848661210b565b91508190509392505050565b7fe29d97efb88f20ec9db4ebafb820eca1b4ec9eaced9598eb8a9420ebb0b1ec8b60008201527fa020eca285eba598ec9e85eb8b88eb8ba42e0000000000000000000000000000602082015250565b60006121a56032836118a8565b91506121b082612149565b604082019050919050565b600060208201905081810360008301526121d481612198565b905091905056fea26469706673582212201702e0f53bc896b3ffefeaf3a8ac04080d8b6a9226578f1e38a7e78fcd93e85164736f6c634300080b0033",
			"opcodes": "PUSH1 0x80 PUSH1 0x40 MSTORE CALLVALUE DUP1 ISZERO PUSH3 0x11 JUMPI PUSH1 0x0 DUP1 REVERT JUMPDEST POP CALLER PUSH1 0x0 DUP1 PUSH2 0x100 EXP DUP2 SLOAD DUP2 PUSH20 0xFFFFFFFFFFFFFFFFFFFFFFFFFFFFFFFFFFFFFFFF MUL NOT AND SWAP1 DUP4 PUSH20 0xFFFFFFFFFFFFFFFFFFFFFFFFFFFFFFFFFFFFFFFF AND MUL OR SWAP1 SSTORE POP PUSH1 0x1 DUP1 PUSH1 0x0 CALLER PUSH20 0xFFFFFFFFFFFFFFFFFFFFFFFFFFFFFFFFFFFFFFFF AND PUSH20 0xFFFFFFFFFFFFFFFFFFFFFFFFFFFFFFFFFFFFFFFF AND DUP2 MSTORE PUSH1 0x20 ADD SWAP1 DUP2 MSTORE PUSH1 0x20 ADD PUSH1 0x0 KECCAK256 PUSH1 0x0 PUSH2 0x100 EXP DUP2 SLOAD DUP2 PUSH1 0xFF MUL NOT AND SWAP1 DUP4 ISZERO ISZERO MUL OR SWAP1 SSTORE POP PUSH1 0x1 PUSH1 0x2 DUP2 SWAP1 SSTORE POP PUSH1 0x40 MLOAD DUP1 PUSH1 0x40 ADD PUSH1 0x40 MSTORE DUP1 PUSH1 0x2 DUP2 MSTORE PUSH1 0x20 ADD PUSH32 0x5943000000000000000000000000000000000000000000000000000000000000 DUP2 MSTORE POP PUSH1 0x3 PUSH1 0x0 DUP1 PUSH1 0xFF AND DUP2 MSTORE PUSH1 0x20 ADD SWAP1 DUP2 MSTORE PUSH1 0x20 ADD PUSH1 0x0 KECCAK256 SWAP1 DUP1 MLOAD SWAP1 PUSH1 0x20 ADD SWAP1 PUSH3 0x112 SWAP3 SWAP2 SWAP1 PUSH3 0x1FB JUMP JUMPDEST POP PUSH1 0x40 MLOAD DUP1 PUSH1 0x40 ADD PUSH1 0x40 MSTORE DUP1 PUSH1 0x3 DUP2 MSTORE PUSH1 0x20 ADD PUSH32 0x4D444E0000000000000000000000000000000000000000000000000000000000 DUP2 MSTORE POP PUSH1 0x3 PUSH1 0x0 PUSH1 0x1 PUSH1 0xFF AND DUP2 MSTORE PUSH1 0x20 ADD SWAP1 DUP2 MSTORE PUSH1 0x20 ADD PUSH1 0x0 KECCAK256 SWAP1 DUP1 MLOAD SWAP1 PUSH1 0x20 ADD SWAP1 PUSH3 0x175 SWAP3 SWAP2 SWAP1 PUSH3 0x1FB JUMP JUMPDEST POP PUSH1 0x40 MLOAD DUP1 PUSH1 0x40 ADD PUSH1 0x40 MSTORE DUP1 PUSH1 0x3 DUP2 MSTORE PUSH1 0x20 ADD PUSH32 0x48575A0000000000000000000000000000000000000000000000000000000000 DUP2 MSTORE POP PUSH1 0x3 PUSH1 0x0 PUSH1 0x2 PUSH1 0xFF AND DUP2 MSTORE PUSH1 0x20 ADD SWAP1 DUP2 MSTORE PUSH1 0x20 ADD PUSH1 0x0 KECCAK256 SWAP1 DUP1 MLOAD SWAP1 PUSH1 0x20 ADD SWAP1 PUSH3 0x1D8 SWAP3 SWAP2 SWAP1 PUSH3 0x1FB JUMP JUMPDEST POP PUSH1 0x3 PUSH1 0x4 PUSH1 0x0 PUSH2 0x100 EXP DUP2 SLOAD DUP2 PUSH1 0xFF MUL NOT AND SWAP1 DUP4 PUSH1 0xFF AND MUL OR SWAP1 SSTORE POP PUSH3 0x310 JUMP JUMPDEST DUP3 DUP1 SLOAD PUSH3 0x209 SWAP1 PUSH3 0x2DA JUMP JUMPDEST SWAP1 PUSH1 0x0 MSTORE PUSH1 0x20 PUSH1 0x0 KECCAK256 SWAP1 PUSH1 0x1F ADD PUSH1 0x20 SWAP1 DIV DUP2 ADD SWAP3 DUP3 PUSH3 0x22D JUMPI PUSH1 0x0 DUP6 SSTORE PUSH3 0x279 JUMP JUMPDEST DUP3 PUSH1 0x1F LT PUSH3 0x248 JUMPI DUP1 MLOAD PUSH1 0xFF NOT AND DUP4 DUP1 ADD OR DUP6 SSTORE PUSH3 0x279 JUMP JUMPDEST DUP3 DUP1 ADD PUSH1 0x1 ADD DUP6 SSTORE DUP3 ISZERO PUSH3 0x279 JUMPI SWAP2 DUP3 ADD JUMPDEST DUP3 DUP2 GT ISZERO PUSH3 0x278 JUMPI DUP3 MLOAD DUP3 SSTORE SWAP2 PUSH1 0x20 ADD SWAP2 SWAP1 PUSH1 0x1 ADD SWAP1 PUSH3 0x25B JUMP JUMPDEST JUMPDEST POP SWAP1 POP PUSH3 0x288 SWAP2 SWAP1 PUSH3 0x28C JUMP JUMPDEST POP SWAP1 JUMP JUMPDEST JUMPDEST DUP1 DUP3 GT ISZERO PUSH3 0x2A7 JUMPI PUSH1 0x0 DUP2 PUSH1 0x0 SWAP1 SSTORE POP PUSH1 0x1 ADD PUSH3 0x28D JUMP JUMPDEST POP SWAP1 JUMP JUMPDEST PUSH32 0x4E487B7100000000000000000000000000000000000000000000000000000000 PUSH1 0x0 MSTORE PUSH1 0x22 PUSH1 0x4 MSTORE PUSH1 0x24 PUSH1 0x0 REVERT JUMPDEST PUSH1 0x0 PUSH1 0x2 DUP3 DIV SWAP1 POP PUSH1 0x1 DUP3 AND DUP1 PUSH3 0x2F3 JUMPI PUSH1 0x7F DUP3 AND SWAP2 POP JUMPDEST PUSH1 0x20 DUP3 LT DUP2 EQ ISZERO PUSH3 0x30A JUMPI PUSH3 0x309 PUSH3 0x2AB JUMP JUMPDEST JUMPDEST POP SWAP2 SWAP1 POP JUMP JUMPDEST PUSH2 0x2211 DUP1 PUSH3 0x320 PUSH1 0x0 CODECOPY PUSH1 0x0 RETURN INVALID PUSH1 0x80 PUSH1 0x40 MSTORE CALLVALUE DUP1 ISZERO PUSH2 0x10 JUMPI PUSH1 0x0 DUP1 REVERT JUMPDEST POP PUSH1 0x4 CALLDATASIZE LT PUSH2 0xA9 JUMPI PUSH1 0x0 CALLDATALOAD PUSH1 0xE0 SHR DUP1 PUSH4 0x3F8A37DC GT PUSH2 0x71 JUMPI DUP1 PUSH4 0x3F8A37DC EQ PUSH2 0x19E JUMPI DUP1 PUSH4 0x877B9A67 EQ PUSH2 0x1CE JUMPI DUP1 PUSH4 0xC67E96D2 EQ PUSH2 0x1FE JUMPI DUP1 PUSH4 0xCEEF5B95 EQ PUSH2 0x22F JUMPI DUP1 PUSH4 0xD1658546 EQ PUSH2 0x25F JUMPI DUP1 PUSH4 0xF2FDE38B EQ PUSH2 0x28F JUMPI PUSH2 0xA9 JUMP JUMPDEST DUP1 PUSH4 0xDC3BE9E EQ PUSH2 0xAE JUMPI DUP1 PUSH4 0x20694DB0 EQ PUSH2 0xDE JUMPI DUP1 PUSH4 0x34BECFB4 EQ PUSH2 0x10E JUMPI DUP1 PUSH4 0x36145996 EQ PUSH2 0x13E JUMPI DUP1 PUSH4 0x38A7543E EQ PUSH2 0x16E JUMPI JUMPDEST PUSH1 0x0 DUP1 REVERT JUMPDEST PUSH2 0xC8 PUSH1 0x4 DUP1 CALLDATASIZE SUB DUP2 ADD SWAP1 PUSH2 0xC3 SWAP2 SWAP1 PUSH2 0x15C2 JUMP JUMPDEST PUSH2 0x2AB JUMP JUMPDEST PUSH1 0x40 MLOAD PUSH2 0xD5 SWAP2 SWAP1 PUSH2 0x1709 JUMP JUMPDEST PUSH1 0x40 MLOAD DUP1 SWAP2 SUB SWAP1 RETURN JUMPDEST PUSH2 0xF8 PUSH1 0x4 DUP1 CALLDATASIZE SUB DUP2 ADD SWAP1 PUSH2 0xF3 SWAP2 SWAP1 PUSH2 0x172B JUMP JUMPDEST PUSH2 0x54B JUMP JUMPDEST PUSH1 0x40 MLOAD PUSH2 0x105 SWAP2 SWAP1 PUSH2 0x1773 JUMP JUMPDEST PUSH1 0x40 MLOAD DUP1 SWAP2 SUB SWAP1 RETURN JUMPDEST PUSH2 0x128 PUSH1 0x4 DUP1 CALLDATASIZE SUB DUP2 ADD SWAP1 PUSH2 0x123 SWAP2 SWAP1 PUSH2 0x172B JUMP JUMPDEST PUSH2 0x6DC JUMP JUMPDEST PUSH1 0x40 MLOAD PUSH2 0x135 SWAP2 SWAP1 PUSH2 0x1773 JUMP JUMPDEST PUSH1 0x40 MLOAD DUP1 SWAP2 SUB SWAP1 RETURN JUMPDEST PUSH2 0x158 PUSH1 0x4 DUP1 CALLDATASIZE SUB DUP2 ADD SWAP1 PUSH2 0x153 SWAP2 SWAP1 PUSH2 0x17F3 JUMP JUMPDEST PUSH2 0x86E JUMP JUMPDEST PUSH1 0x40 MLOAD PUSH2 0x165 SWAP2 SWAP1 PUSH2 0x1773 JUMP JUMPDEST PUSH1 0x40 MLOAD DUP1 SWAP2 SUB SWAP1 RETURN JUMPDEST PUSH2 0x188 PUSH1 0x4 DUP1 CALLDATASIZE SUB DUP2 ADD SWAP1 PUSH2 0x183 SWAP2 SWAP1 PUSH2 0x172B JUMP JUMPDEST PUSH2 0xAFA JUMP JUMPDEST PUSH1 0x40 MLOAD PUSH2 0x195 SWAP2 SWAP1 PUSH2 0x1773 JUMP JUMPDEST PUSH1 0x40 MLOAD DUP1 SWAP2 SUB SWAP1 RETURN JUMPDEST PUSH2 0x1B8 PUSH1 0x4 DUP1 CALLDATASIZE SUB DUP2 ADD SWAP1 PUSH2 0x1B3 SWAP2 SWAP1 PUSH2 0x187B JUMP JUMPDEST PUSH2 0xB1A JUMP JUMPDEST PUSH1 0x40 MLOAD PUSH2 0x1C5 SWAP2 SWAP1 PUSH2 0x18F2 JUMP JUMPDEST PUSH1 0x40 MLOAD DUP1 SWAP2 SUB SWAP1 RETURN JUMPDEST PUSH2 0x1E8 PUSH1 0x4 DUP1 CALLDATASIZE SUB DUP2 ADD SWAP1 PUSH2 0x1E3 SWAP2 SWAP1 PUSH2 0x172B JUMP JUMPDEST PUSH2 0xBC5 JUMP JUMPDEST PUSH1 0x40 MLOAD PUSH2 0x1F5 SWAP2 SWAP1 PUSH2 0x1773 JUMP JUMPDEST PUSH1 0x40 MLOAD DUP1 SWAP2 SUB SWAP1 RETURN JUMPDEST PUSH2 0x218 PUSH1 0x4 DUP1 CALLDATASIZE SUB DUP2 ADD SWAP1 PUSH2 0x213 SWAP2 SWAP1 PUSH2 0x15C2 JUMP JUMPDEST PUSH2 0xC1B JUMP JUMPDEST PUSH1 0x40 MLOAD PUSH2 0x226 SWAP3 SWAP2 SWAP1 PUSH2 0x1923 JUMP JUMPDEST PUSH1 0x40 MLOAD DUP1 SWAP2 SUB SWAP1 RETURN JUMPDEST PUSH2 0x249 PUSH1 0x4 DUP1 CALLDATASIZE SUB DUP2 ADD SWAP1 PUSH2 0x244 SWAP2 SWAP1 PUSH2 0x17F3 JUMP JUMPDEST PUSH2 0xD01 JUMP JUMPDEST PUSH1 0x40 MLOAD PUSH2 0x256 SWAP2 SWAP1 PUSH2 0x1773 JUMP JUMPDEST PUSH1 0x40 MLOAD DUP1 SWAP2 SUB SWAP1 RETURN JUMPDEST PUSH2 0x279 PUSH1 0x4 DUP1 CALLDATASIZE SUB DUP2 ADD SWAP1 PUSH2 0x274 SWAP2 SWAP1 PUSH2 0x194C JUMP JUMPDEST PUSH2 0x10E0 JUMP JUMPDEST PUSH1 0x40 MLOAD PUSH2 0x286 SWAP2 SWAP1 PUSH2 0x1773 JUMP JUMPDEST PUSH1 0x40 MLOAD DUP1 SWAP2 SUB SWAP1 RETURN JUMPDEST PUSH2 0x2A9 PUSH1 0x4 DUP1 CALLDATASIZE SUB DUP2 ADD SWAP1 PUSH2 0x2A4 SWAP2 SWAP1 PUSH2 0x172B JUMP JUMPDEST PUSH2 0x1266 JUMP JUMPDEST STOP JUMPDEST PUSH2 0x2B3 PUSH2 0x1444 JUMP JUMPDEST PUSH1 0x0 PUSH1 0x5 PUSH1 0x0 DUP6 PUSH20 0xFFFFFFFFFFFFFFFFFFFFFFFFFFFFFFFFFFFFFFFF AND PUSH20 0xFFFFFFFFFFFFFFFFFFFFFFFFFFFFFFFFFFFFFFFF AND DUP2 MSTORE PUSH1 0x20 ADD SWAP1 DUP2 MSTORE PUSH1 0x20 ADD PUSH1 0x0 KECCAK256 PUSH1 0x0 ADD SLOAD EQ ISZERO PUSH2 0x339 JUMPI PUSH1 0x40 MLOAD PUSH32 0x8C379A000000000000000000000000000000000000000000000000000000000 DUP2 MSTORE PUSH1 0x4 ADD PUSH2 0x330 SWAP1 PUSH2 0x1A31 JUMP JUMPDEST PUSH1 0x40 MLOAD DUP1 SWAP2 SUB SWAP1 REVERT JUMPDEST PUSH1 0x5 PUSH1 0x0 DUP5 PUSH20 0xFFFFFFFFFFFFFFFFFFFFFFFFFFFFFFFFFFFFFFFF AND PUSH20 0xFFFFFFFFFFFFFFFFFFFFFFFFFFFFFFFFFFFFFFFF AND DUP2 MSTORE PUSH1 0x20 ADD SWAP1 DUP2 MSTORE PUSH1 0x20 ADD PUSH1 0x0 KECCAK256 PUSH1 0x4 ADD PUSH1 0x0 SWAP1 SLOAD SWAP1 PUSH2 0x100 EXP SWAP1 DIV PUSH1 0xFF AND PUSH1 0xFF AND DUP3 PUSH1 0xFF AND GT ISZERO PUSH2 0x3D1 JUMPI PUSH1 0x40 MLOAD PUSH32 0x8C379A000000000000000000000000000000000000000000000000000000000 DUP2 MSTORE PUSH1 0x4 ADD PUSH2 0x3C8 SWAP1 PUSH2 0x1AE9 JUMP JUMPDEST PUSH1 0x40 MLOAD DUP1 SWAP2 SUB SWAP1 REVERT JUMPDEST PUSH1 0x60 PUSH1 0x0 JUMPDEST PUSH1 0x4 PUSH1 0x0 SWAP1 SLOAD SWAP1 PUSH2 0x100 EXP SWAP1 DIV PUSH1 0xFF AND PUSH1 0xFF AND DUP2 PUSH1 0xFF AND LT ISZERO PUSH2 0x48E JUMPI PUSH1 0x0 PUSH1 0x5 PUSH1 0x0 DUP8 PUSH20 0xFFFFFFFFFFFFFFFFFFFFFFFFFFFFFFFFFFFFFFFF AND PUSH20 0xFFFFFFFFFFFFFFFFFFFFFFFFFFFFFFFFFFFFFFFF AND DUP2 MSTORE PUSH1 0x20 ADD SWAP1 DUP2 MSTORE PUSH1 0x20 ADD PUSH1 0x0 KECCAK256 PUSH1 0x2 ADD PUSH1 0x0 DUP7 PUSH1 0xFF AND PUSH1 0xFF AND DUP2 MSTORE PUSH1 0x20 ADD SWAP1 DUP2 MSTORE PUSH1 0x20 ADD PUSH1 0x0 KECCAK256 PUSH1 0x0 DUP4 PUSH1 0xFF AND PUSH1 0xFF AND DUP2 MSTORE PUSH1 0x20 ADD SWAP1 DUP2 MSTORE PUSH1 0x20 ADD PUSH1 0x0 KECCAK256 SLOAD EQ PUSH2 0x47B JUMPI PUSH2 0x474 DUP2 PUSH2 0xB1A JUMP JUMPDEST SWAP2 POP PUSH2 0x48E JUMP JUMPDEST DUP1 DUP1 PUSH2 0x486 SWAP1 PUSH2 0x1B38 JUMP JUMPDEST SWAP2 POP POP PUSH2 0x3D6 JUMP JUMPDEST POP PUSH1 0x0 PUSH1 0x40 MLOAD DUP1 PUSH1 0x60 ADD PUSH1 0x40 MSTORE DUP1 PUSH1 0x5 PUSH1 0x0 DUP9 PUSH20 0xFFFFFFFFFFFFFFFFFFFFFFFFFFFFFFFFFFFFFFFF AND PUSH20 0xFFFFFFFFFFFFFFFFFFFFFFFFFFFFFFFFFFFFFFFF AND DUP2 MSTORE PUSH1 0x20 ADD SWAP1 DUP2 MSTORE PUSH1 0x20 ADD PUSH1 0x0 KECCAK256 PUSH1 0x3 ADD PUSH1 0x0 DUP8 PUSH1 0xFF AND PUSH1 0xFF AND DUP2 MSTORE PUSH1 0x20 ADD SWAP1 DUP2 MSTORE PUSH1 0x20 ADD PUSH1 0x0 KECCAK256 PUSH1 0x0 SWAP1 SLOAD SWAP1 PUSH2 0x100 EXP SWAP1 DIV PUSH20 0xFFFFFFFFFFFFFFFFFFFFFFFFFFFFFFFFFFFFFFFF AND PUSH20 0xFFFFFFFFFFFFFFFFFFFFFFFFFFFFFFFFFFFFFFFF AND DUP2 MSTORE PUSH1 0x20 ADD DUP4 DUP2 MSTORE PUSH1 0x20 ADD DUP6 PUSH1 0xFF AND DUP2 MSTORE POP SWAP1 POP DUP1 SWAP3 POP POP POP SWAP3 SWAP2 POP POP JUMP JUMPDEST PUSH1 0x0 DUP1 PUSH1 0x0 SWAP1 SLOAD SWAP1 PUSH2 0x100 EXP SWAP1 DIV PUSH20 0xFFFFFFFFFFFFFFFFFFFFFFFFFFFFFFFFFFFFFFFF AND PUSH20 0xFFFFFFFFFFFFFFFFFFFFFFFFFFFFFFFFFFFFFFFF AND CALLER PUSH20 0xFFFFFFFFFFFFFFFFFFFFFFFFFFFFFFFFFFFFFFFF AND EQ PUSH2 0x5DC JUMPI PUSH1 0x40 MLOAD PUSH32 0x8C379A000000000000000000000000000000000000000000000000000000000 DUP2 MSTORE PUSH1 0x4 ADD PUSH2 0x5D3 SWAP1 PUSH2 0x1BD4 JUMP JUMPDEST PUSH1 0x40 MLOAD DUP1 SWAP2 SUB SWAP1 REVERT JUMPDEST PUSH1 0x0 ISZERO ISZERO PUSH1 0x1 PUSH1 0x0 DUP5 PUSH20 0xFFFFFFFFFFFFFFFFFFFFFFFFFFFFFFFFFFFFFFFF AND PUSH20 0xFFFFFFFFFFFFFFFFFFFFFFFFFFFFFFFFFFFFFFFF AND DUP2 MSTORE PUSH1 0x20 ADD SWAP1 DUP2 MSTORE PUSH1 0x20 ADD PUSH1 0x0 KECCAK256 PUSH1 0x0 SWAP1 SLOAD SWAP1 PUSH2 0x100 EXP SWAP1 DIV PUSH1 0xFF AND ISZERO ISZERO EQ PUSH2 0x639 JUMPI PUSH1 0x0 DUP1 REVERT JUMPDEST PUSH1 0x1 DUP1 PUSH1 0x0 DUP5 PUSH20 0xFFFFFFFFFFFFFFFFFFFFFFFFFFFFFFFFFFFFFFFF AND PUSH20 0xFFFFFFFFFFFFFFFFFFFFFFFFFFFFFFFFFFFFFFFF AND DUP2 MSTORE PUSH1 0x20 ADD SWAP1 DUP2 MSTORE PUSH1 0x20 ADD PUSH1 0x0 KECCAK256 PUSH1 0x0 PUSH2 0x100 EXP DUP2 SLOAD DUP2 PUSH1 0xFF MUL NOT AND SWAP1 DUP4 ISZERO ISZERO MUL OR SWAP1 SSTORE POP DUP2 PUSH20 0xFFFFFFFFFFFFFFFFFFFFFFFFFFFFFFFFFFFFFFFF AND PUSH32 0x27AA0506E4DA65B95BD4F61C697076F8C7DCB69B2C0937D11EFA9CEAA3BF5A95 PUSH1 0x40 MLOAD PUSH1 0x40 MLOAD DUP1 SWAP2 SUB SWAP1 LOG2 PUSH1 0x1 SWAP1 POP SWAP2 SWAP1 POP JUMP JUMPDEST PUSH1 0x0 DUP1 PUSH1 0x0 SWAP1 SLOAD SWAP1 PUSH2 0x100 EXP SWAP1 DIV PUSH20 0xFFFFFFFFFFFFFFFFFFFFFFFFFFFFFFFFFFFFFFFF AND PUSH20 0xFFFFFFFFFFFFFFFFFFFFFFFFFFFFFFFFFFFFFFFF AND CALLER PUSH20 0xFFFFFFFFFFFFFFFFFFFFFFFFFFFFFFFFFFFFFFFF AND EQ PUSH2 0x76D JUMPI PUSH1 0x40 MLOAD PUSH32 0x8C379A000000000000000000000000000000000000000000000000000000000 DUP2 MSTORE PUSH1 0x4 ADD PUSH2 0x764 SWAP1 PUSH2 0x1BD4 JUMP JUMPDEST PUSH1 0x40 MLOAD DUP1 SWAP2 SUB SWAP1 REVERT JUMPDEST PUSH1 0x1 ISZERO ISZERO PUSH1 0x1 PUSH1 0x0 DUP5 PUSH20 0xFFFFFFFFFFFFFFFFFFFFFFFFFFFFFFFFFFFFFFFF AND PUSH20 0xFFFFFFFFFFFFFFFFFFFFFFFFFFFFFFFFFFFFFFFF AND DUP2 MSTORE PUSH1 0x20 ADD SWAP1 DUP2 MSTORE PUSH1 0x20 ADD PUSH1 0x0 KECCAK256 PUSH1 0x0 SWAP1 SLOAD SWAP1 PUSH2 0x100 EXP SWAP1 DIV PUSH1 0xFF AND ISZERO ISZERO EQ PUSH2 0x7CA JUMPI PUSH1 0x0 DUP1 REVERT JUMPDEST PUSH1 0x0 PUSH1 0x1 PUSH1 0x0 DUP5 PUSH20 0xFFFFFFFFFFFFFFFFFFFFFFFFFFFFFFFFFFFFFFFF AND PUSH20 0xFFFFFFFFFFFFFFFFFFFFFFFFFFFFFFFFFFFFFFFF AND DUP2 MSTORE PUSH1 0x20 ADD SWAP1 DUP2 MSTORE PUSH1 0x20 ADD PUSH1 0x0 KECCAK256 PUSH1 0x0 PUSH2 0x100 EXP DUP2 SLOAD DUP2 PUSH1 0xFF MUL NOT AND SWAP1 DUP4 ISZERO ISZERO MUL OR SWAP1 SSTORE POP DUP2 PUSH20 0xFFFFFFFFFFFFFFFFFFFFFFFFFFFFFFFFFFFFFFFF AND PUSH32 0xEE5D7D94405E51EEC1BD7F59C36572787D25AFB6C85E3A897BB782F08AAC7D44 PUSH1 0x40 MLOAD PUSH1 0x40 MLOAD DUP1 SWAP2 SUB SWAP1 LOG2 PUSH1 0x1 SWAP1 POP SWAP2 SWAP1 POP JUMP JUMPDEST PUSH1 0x0 PUSH1 0x1 ISZERO ISZERO PUSH2 0x87D CALLER PUSH2 0xBC5 JUMP JUMPDEST ISZERO ISZERO EQ PUSH2 0x8BF JUMPI PUSH1 0x40 MLOAD PUSH32 0x8C379A000000000000000000000000000000000000000000000000000000000 DUP2 MSTORE PUSH1 0x4 ADD PUSH2 0x8B6 SWAP1 PUSH2 0x1C66 JUMP JUMPDEST PUSH1 0x40 MLOAD DUP1 SWAP2 SUB SWAP1 REVERT JUMPDEST PUSH1 0x0 PUSH1 0x5 PUSH1 0x0 DUP9 PUSH20 0xFFFFFFFFFFFFFFFFFFFFFFFFFFFFFFFFFFFFFFFF AND PUSH20 0xFFFFFFFFFFFFFFFFFFFFFFFFFFFFFFFFFFFFFFFF AND DUP2 MSTORE PUSH1 0x20 ADD SWAP1 DUP2 MSTORE PUSH1 0x20 ADD PUSH1 0x0 KECCAK256 SWAP1 POP PUSH1 0x0 DUP2 PUSH1 0x0 ADD SLOAD EQ PUSH2 0x949 JUMPI PUSH1 0x40 MLOAD PUSH32 0x8C379A000000000000000000000000000000000000000000000000000000000 DUP2 MSTORE PUSH1 0x4 ADD PUSH2 0x940 SWAP1 PUSH2 0x1D1E JUMP JUMPDEST PUSH1 0x40 MLOAD DUP1 SWAP2 SUB SWAP1 REVERT JUMPDEST PUSH1 0x1 DUP7 PUSH1 0xFF AND EQ PUSH2 0x98F JUMPI PUSH1 0x40 MLOAD PUSH32 0x8C379A000000000000000000000000000000000000000000000000000000000 DUP2 MSTORE PUSH1 0x4 ADD PUSH2 0x986 SWAP1 PUSH2 0x1DD6 JUMP JUMPDEST PUSH1 0x40 MLOAD DUP1 SWAP2 SUB SWAP1 REVERT JUMPDEST PUSH1 0x0 DUP2 PUSH1 0x2 ADD PUSH1 0x0 DUP9 PUSH1 0xFF AND PUSH1 0xFF AND DUP2 MSTORE PUSH1 0x20 ADD SWAP1 DUP2 MSTORE PUSH1 0x20 ADD PUSH1 0x0 KECCAK256 PUSH1 0x0 DUP8 PUSH1 0xFF AND PUSH1 0xFF AND DUP2 MSTORE PUSH1 0x20 ADD SWAP1 DUP2 MSTORE PUSH1 0x20 ADD PUSH1 0x0 KECCAK256 SLOAD EQ PUSH2 0xA04 JUMPI PUSH1 0x40 MLOAD PUSH32 0x8C379A000000000000000000000000000000000000000000000000000000000 DUP2 MSTORE PUSH1 0x4 ADD PUSH2 0x9FB SWAP1 PUSH2 0x1D1E JUMP JUMPDEST PUSH1 0x40 MLOAD DUP1 SWAP2 SUB SWAP1 REVERT JUMPDEST PUSH1 0x2 SLOAD DUP2 PUSH1 0x0 ADD DUP2 SWAP1 SSTORE POP CALLER DUP2 PUSH1 0x3 ADD PUSH1 0x0 DUP9 PUSH1 0xFF AND PUSH1 0xFF AND DUP2 MSTORE PUSH1 0x20 ADD SWAP1 DUP2 MSTORE PUSH1 0x20 ADD PUSH1 0x0 KECCAK256 PUSH1 0x0 PUSH2 0x100 EXP DUP2 SLOAD DUP2 PUSH20 0xFFFFFFFFFFFFFFFFFFFFFFFFFFFFFFFFFFFFFFFF MUL NOT AND SWAP1 DUP4 PUSH20 0xFFFFFFFFFFFFFFFFFFFFFFFFFFFFFFFFFFFFFFFF AND MUL OR SWAP1 SSTORE POP DUP4 DUP4 DUP3 PUSH1 0x1 ADD SWAP2 SWAP1 PUSH2 0xA7C SWAP3 SWAP2 SWAP1 PUSH2 0x147E JUMP JUMPDEST POP TIMESTAMP DUP2 PUSH1 0x2 ADD PUSH1 0x0 DUP9 PUSH1 0xFF AND PUSH1 0xFF AND DUP2 MSTORE PUSH1 0x20 ADD SWAP1 DUP2 MSTORE PUSH1 0x20 ADD PUSH1 0x0 KECCAK256 PUSH1 0x0 DUP8 PUSH1 0xFF AND PUSH1 0xFF AND DUP2 MSTORE PUSH1 0x20 ADD SWAP1 DUP2 MSTORE PUSH1 0x20 ADD PUSH1 0x0 KECCAK256 DUP2 SWAP1 SSTORE POP PUSH1 0x1 DUP2 PUSH1 0x4 ADD PUSH1 0x0 PUSH2 0x100 EXP DUP2 SLOAD DUP2 PUSH1 0xFF MUL NOT AND SWAP1 DUP4 PUSH1 0xFF AND MUL OR SWAP1 SSTORE POP PUSH1 0x1 PUSH1 0x2 PUSH1 0x0 DUP3 DUP3 SLOAD PUSH2 0xAE5 SWAP2 SWAP1 PUSH2 0x1E00 JUMP JUMPDEST SWAP3 POP POP DUP2 SWAP1 SSTORE POP PUSH1 0x1 SWAP2 POP POP SWAP6 SWAP5 POP POP POP POP POP JUMP JUMPDEST PUSH1 0x1 PUSH1 0x20 MSTORE DUP1 PUSH1 0x0 MSTORE PUSH1 0x40 PUSH1 0x0 KECCAK256 PUSH1 0x0 SWAP2 POP SLOAD SWAP1 PUSH2 0x100 EXP SWAP1 DIV PUSH1 0xFF AND DUP2 JUMP JUMPDEST PUSH1 0x60 PUSH1 0x3 PUSH1 0x0 DUP4 PUSH1 0xFF AND PUSH1 0xFF AND DUP2 MSTORE PUSH1 0x20 ADD SWAP1 DUP2 MSTORE PUSH1 0x20 ADD PUSH1 0x0 KECCAK256 DUP1 SLOAD PUSH2 0xB40 SWAP1 PUSH2 0x1E85 JUMP JUMPDEST DUP1 PUSH1 0x1F ADD PUSH1 0x20 DUP1 SWAP2 DIV MUL PUSH1 0x20 ADD PUSH1 0x40 MLOAD SWAP1 DUP2 ADD PUSH1 0x40 MSTORE DUP1 SWAP3 SWAP2 SWAP1 DUP2 DUP2 MSTORE PUSH1 0x20 ADD DUP3 DUP1 SLOAD PUSH2 0xB6C SWAP1 PUSH2 0x1E85 JUMP JUMPDEST DUP1 ISZERO PUSH2 0xBB9 JUMPI DUP1 PUSH1 0x1F LT PUSH2 0xB8E JUMPI PUSH2 0x100 DUP1 DUP4 SLOAD DIV MUL DUP4 MSTORE SWAP2 PUSH1 0x20 ADD SWAP2 PUSH2 0xBB9 JUMP JUMPDEST DUP3 ADD SWAP2 SWAP1 PUSH1 0x0 MSTORE PUSH1 0x20 PUSH1 0x0 KECCAK256 SWAP1 JUMPDEST DUP2 SLOAD DUP2 MSTORE SWAP1 PUSH1 0x1 ADD SWAP1 PUSH1 0x20 ADD DUP1 DUP4 GT PUSH2 0xB9C JUMPI DUP3 SWAP1 SUB PUSH1 0x1F AND DUP3 ADD SWAP2 JUMPDEST POP POP POP POP POP SWAP1 POP SWAP2 SWAP1 POP JUMP JUMPDEST PUSH1 0x0 PUSH1 0x1 PUSH1 0x0 DUP4 PUSH20 0xFFFFFFFFFFFFFFFFFFFFFFFFFFFFFFFFFFFFFFFF AND PUSH20 0xFFFFFFFFFFFFFFFFFFFFFFFFFFFFFFFFFFFFFFFF AND DUP2 MSTORE PUSH1 0x20 ADD SWAP1 DUP2 MSTORE PUSH1 0x20 ADD PUSH1 0x0 KECCAK256 PUSH1 0x0 SWAP1 SLOAD SWAP1 PUSH2 0x100 EXP SWAP1 DIV PUSH1 0xFF AND SWAP1 POP SWAP2 SWAP1 POP JUMP JUMPDEST PUSH1 0x0 DUP1 PUSH1 0x0 JUMPDEST PUSH1 0x4 PUSH1 0x0 SWAP1 SLOAD SWAP1 PUSH2 0x100 EXP SWAP1 DIV PUSH1 0xFF AND PUSH1 0xFF AND DUP2 PUSH1 0xFF AND LT ISZERO PUSH2 0xCD6 JUMPI PUSH1 0x0 PUSH1 0x5 PUSH1 0x0 DUP8 PUSH20 0xFFFFFFFFFFFFFFFFFFFFFFFFFFFFFFFFFFFFFFFF AND PUSH20 0xFFFFFFFFFFFFFFFFFFFFFFFFFFFFFFFFFFFFFFFF AND DUP2 MSTORE PUSH1 0x20 ADD SWAP1 DUP2 MSTORE PUSH1 0x20 ADD PUSH1 0x0 KECCAK256 PUSH1 0x2 ADD PUSH1 0x0 DUP7 PUSH1 0xFF AND PUSH1 0xFF AND DUP2 MSTORE PUSH1 0x20 ADD SWAP1 DUP2 MSTORE PUSH1 0x20 ADD PUSH1 0x0 KECCAK256 PUSH1 0x0 DUP4 PUSH1 0xFF AND PUSH1 0xFF AND DUP2 MSTORE PUSH1 0x20 ADD SWAP1 DUP2 MSTORE PUSH1 0x20 ADD PUSH1 0x0 KECCAK256 SLOAD EQ PUSH2 0xCC3 JUMPI PUSH1 0x1 DUP2 SWAP3 POP SWAP3 POP POP PUSH2 0xCFA JUMP JUMPDEST DUP1 DUP1 PUSH2 0xCCE SWAP1 PUSH2 0x1B38 JUMP JUMPDEST SWAP2 POP POP PUSH2 0xC21 JUMP JUMPDEST POP PUSH1 0x0 PUSH1 0x1 PUSH1 0x4 PUSH1 0x0 SWAP1 SLOAD SWAP1 PUSH2 0x100 EXP SWAP1 DIV PUSH1 0xFF AND PUSH2 0xCF5 SWAP2 SWAP1 PUSH2 0x1EB7 JUMP JUMPDEST SWAP2 POP SWAP2 POP JUMPDEST SWAP3 POP SWAP3 SWAP1 POP JUMP JUMPDEST PUSH1 0x0 PUSH1 0x1 ISZERO ISZERO PUSH2 0xD10 CALLER PUSH2 0xBC5 JUMP JUMPDEST ISZERO ISZERO EQ PUSH2 0xD52 JUMPI PUSH1 0x40 MLOAD PUSH32 0x8C379A000000000000000000000000000000000000000000000000000000000 DUP2 MSTORE PUSH1 0x4 ADD PUSH2 0xD49 SWAP1 PUSH2 0x1C66 JUMP JUMPDEST PUSH1 0x40 MLOAD DUP1 SWAP2 SUB SWAP1 REVERT JUMPDEST PUSH1 0x0 PUSH1 0x5 PUSH1 0x0 DUP9 PUSH20 0xFFFFFFFFFFFFFFFFFFFFFFFFFFFFFFFFFFFFFFFF AND PUSH20 0xFFFFFFFFFFFFFFFFFFFFFFFFFFFFFFFFFFFFFFFF AND DUP2 MSTORE PUSH1 0x20 ADD SWAP1 DUP2 MSTORE PUSH1 0x20 ADD PUSH1 0x0 KECCAK256 PUSH1 0x0 ADD SLOAD EQ ISZERO PUSH2 0xDD8 JUMPI PUSH1 0x40 MLOAD PUSH32 0x8C379A000000000000000000000000000000000000000000000000000000000 DUP2 MSTORE PUSH1 0x4 ADD PUSH2 0xDCF SWAP1 PUSH2 0x1A31 JUMP JUMPDEST PUSH1 0x40 MLOAD DUP1 SWAP2 SUB SWAP1 REVERT JUMPDEST PUSH1 0x1 DUP6 PUSH1 0xFF AND EQ ISZERO PUSH2 0xE1F JUMPI PUSH1 0x40 MLOAD PUSH32 0x8C379A000000000000000000000000000000000000000000000000000000000 DUP2 MSTORE PUSH1 0x4 ADD PUSH2 0xE16 SWAP1 PUSH2 0x1F60 JUMP JUMPDEST PUSH1 0x40 MLOAD DUP1 SWAP2 SUB SWAP1 REVERT JUMPDEST PUSH1 0x1 DUP6 PUSH2 0xE2C SWAP2 SWAP1 PUSH2 0x1F80 JUMP JUMPDEST PUSH1 0xFF AND PUSH1 0x5 PUSH1 0x0 DUP9 PUSH20 0xFFFFFFFFFFFFFFFFFFFFFFFFFFFFFFFFFFFFFFFF AND PUSH20 0xFFFFFFFFFFFFFFFFFFFFFFFFFFFFFFFFFFFFFFFF AND DUP2 MSTORE PUSH1 0x20 ADD SWAP1 DUP2 MSTORE PUSH1 0x20 ADD PUSH1 0x0 KECCAK256 PUSH1 0x4 ADD PUSH1 0x0 SWAP1 SLOAD SWAP1 PUSH2 0x100 EXP SWAP1 DIV PUSH1 0xFF AND PUSH1 0xFF AND EQ PUSH2 0xEC2 JUMPI PUSH1 0x40 MLOAD PUSH32 0x8C379A000000000000000000000000000000000000000000000000000000000 DUP2 MSTORE PUSH1 0x4 ADD PUSH2 0xEB9 SWAP1 PUSH2 0x1F60 JUMP JUMPDEST PUSH1 0x40 MLOAD DUP1 SWAP2 SUB SWAP1 REVERT JUMPDEST PUSH1 0x4 PUSH1 0x0 SWAP1 SLOAD SWAP1 PUSH2 0x100 EXP SWAP1 DIV PUSH1 0xFF AND PUSH1 0xFF AND DUP5 PUSH1 0xFF AND LT PUSH2 0xF19 JUMPI PUSH1 0x40 MLOAD PUSH32 0x8C379A000000000000000000000000000000000000000000000000000000000 DUP2 MSTORE PUSH1 0x4 ADD PUSH2 0xF10 SWAP1 PUSH2 0x2026 JUMP JUMPDEST PUSH1 0x40 MLOAD DUP1 SWAP2 SUB SWAP1 REVERT JUMPDEST TIMESTAMP PUSH1 0x5 PUSH1 0x0 DUP9 PUSH20 0xFFFFFFFFFFFFFFFFFFFFFFFFFFFFFFFFFFFFFFFF AND PUSH20 0xFFFFFFFFFFFFFFFFFFFFFFFFFFFFFFFFFFFFFFFF AND DUP2 MSTORE PUSH1 0x20 ADD SWAP1 DUP2 MSTORE PUSH1 0x20 ADD PUSH1 0x0 KECCAK256 PUSH1 0x2 ADD PUSH1 0x0 DUP8 PUSH1 0xFF AND PUSH1 0xFF AND DUP2 MSTORE PUSH1 0x20 ADD SWAP1 DUP2 MSTORE PUSH1 0x20 ADD PUSH1 0x0 KECCAK256 PUSH1 0x0 DUP7 PUSH1 0xFF AND PUSH1 0xFF AND DUP2 MSTORE PUSH1 0x20 ADD SWAP1 DUP2 MSTORE PUSH1 0x20 ADD PUSH1 0x0 KECCAK256 DUP2 SWAP1 SSTORE POP DUP3 DUP3 PUSH1 0x5 PUSH1 0x0 DUP10 PUSH20 0xFFFFFFFFFFFFFFFFFFFFFFFFFFFFFFFFFFFFFFFF AND PUSH20 0xFFFFFFFFFFFFFFFFFFFFFFFFFFFFFFFFFFFFFFFF AND DUP2 MSTORE PUSH1 0x20 ADD SWAP1 DUP2 MSTORE PUSH1 0x20 ADD PUSH1 0x0 KECCAK256 PUSH1 0x1 ADD SWAP2 SWAP1 PUSH2 0xFDF SWAP3 SWAP2 SWAP1 PUSH2 0x147E JUMP JUMPDEST POP DUP5 PUSH1 0x5 PUSH1 0x0 DUP9 PUSH20 0xFFFFFFFFFFFFFFFFFFFFFFFFFFFFFFFFFFFFFFFF AND PUSH20 0xFFFFFFFFFFFFFFFFFFFFFFFFFFFFFFFFFFFFFFFF AND DUP2 MSTORE PUSH1 0x20 ADD SWAP1 DUP2 MSTORE PUSH1 0x20 ADD PUSH1 0x0 KECCAK256 PUSH1 0x4 ADD PUSH1 0x0 PUSH2 0x100 EXP DUP2 SLOAD DUP2 PUSH1 0xFF MUL NOT AND SWAP1 DUP4 PUSH1 0xFF AND MUL OR SWAP1 SSTORE POP CALLER PUSH1 0x5 PUSH1 0x0 DUP9 PUSH20 0xFFFFFFFFFFFFFFFFFFFFFFFFFFFFFFFFFFFFFFFF AND PUSH20 0xFFFFFFFFFFFFFFFFFFFFFFFFFFFFFFFFFFFFFFFF AND DUP2 MSTORE PUSH1 0x20 ADD SWAP1 DUP2 MSTORE PUSH1 0x20 ADD PUSH1 0x0 KECCAK256 PUSH1 0x3 ADD PUSH1 0x0 DUP8 PUSH1 0xFF AND PUSH1 0xFF AND DUP2 MSTORE PUSH1 0x20 ADD SWAP1 DUP2 MSTORE PUSH1 0x20 ADD PUSH1 0x0 KECCAK256 PUSH1 0x0 PUSH2 0x100 EXP DUP2 SLOAD DUP2 PUSH20 0xFFFFFFFFFFFFFFFFFFFFFFFFFFFFFFFFFFFFFFFF MUL NOT AND SWAP1 DUP4 PUSH20 0xFFFFFFFFFFFFFFFFFFFFFFFFFFFFFFFFFFFFFFFF AND MUL OR SWAP1 SSTORE POP PUSH1 0x1 SWAP1 POP SWAP6 SWAP5 POP POP POP POP POP JUMP JUMPDEST PUSH1 0x0 PUSH1 0x1 ISZERO ISZERO PUSH2 0x10EF CALLER PUSH2 0xBC5 JUMP JUMPDEST ISZERO ISZERO EQ PUSH2 0x1131 JUMPI PUSH1 0x40 MLOAD PUSH32 0x8C379A000000000000000000000000000000000000000000000000000000000 DUP2 MSTORE PUSH1 0x4 ADD PUSH2 0x1128 SWAP1 PUSH2 0x1C66 JUMP JUMPDEST PUSH1 0x40 MLOAD DUP1 SWAP2 SUB SWAP1 REVERT JUMPDEST PUSH1 0x0 JUMPDEST PUSH1 0x4 PUSH1 0x0 SWAP1 SLOAD SWAP1 PUSH2 0x100 EXP SWAP1 DIV PUSH1 0xFF AND PUSH1 0xFF AND DUP2 PUSH1 0xFF AND LT ISZERO PUSH2 0x11EB JUMPI PUSH1 0x3 PUSH1 0x0 DUP3 PUSH1 0xFF AND PUSH1 0xFF AND DUP2 MSTORE PUSH1 0x20 ADD SWAP1 DUP2 MSTORE PUSH1 0x20 ADD PUSH1 0x0 KECCAK256 PUSH1 0x40 MLOAD PUSH2 0x1177 SWAP2 SWAP1 PUSH2 0x20E5 JUMP JUMPDEST PUSH1 0x40 MLOAD DUP1 SWAP2 SUB SWAP1 KECCAK256 DUP5 DUP5 PUSH1 0x40 MLOAD PUSH2 0x118F SWAP3 SWAP2 SWAP1 PUSH2 0x2130 JUMP JUMPDEST PUSH1 0x40 MLOAD DUP1 SWAP2 SUB SWAP1 KECCAK256 EQ ISZERO PUSH2 0x11D8 JUMPI PUSH1 0x40 MLOAD PUSH32 0x8C379A000000000000000000000000000000000000000000000000000000000 DUP2 MSTORE PUSH1 0x4 ADD PUSH2 0x11CF SWAP1 PUSH2 0x21BB JUMP JUMPDEST PUSH1 0x40 MLOAD DUP1 SWAP2 SUB SWAP1 REVERT JUMPDEST DUP1 DUP1 PUSH2 0x11E3 SWAP1 PUSH2 0x1B38 JUMP JUMPDEST SWAP2 POP POP PUSH2 0x1134 JUMP JUMPDEST POP DUP3 DUP3 PUSH1 0x3 PUSH1 0x0 PUSH1 0x4 PUSH1 0x0 SWAP1 SLOAD SWAP1 PUSH2 0x100 EXP SWAP1 DIV PUSH1 0xFF AND PUSH1 0xFF AND PUSH1 0xFF AND DUP2 MSTORE PUSH1 0x20 ADD SWAP1 DUP2 MSTORE PUSH1 0x20 ADD PUSH1 0x0 KECCAK256 SWAP2 SWAP1 PUSH2 0x1223 SWAP3 SWAP2 SWAP1 PUSH2 0x147E JUMP JUMPDEST POP PUSH1 0x4 PUSH1 0x0 DUP2 DUP2 SWAP1 SLOAD SWAP1 PUSH2 0x100 EXP SWAP1 DIV PUSH1 0xFF AND DUP1 SWAP3 SWAP2 SWAP1 PUSH2 0x1243 SWAP1 PUSH2 0x1B38 JUMP JUMPDEST SWAP2 SWAP1 PUSH2 0x100 EXP DUP2 SLOAD DUP2 PUSH1 0xFF MUL NOT AND SWAP1 DUP4 PUSH1 0xFF AND MUL OR SWAP1 SSTORE POP POP PUSH1 0x1 SWAP1 POP SWAP3 SWAP2 POP POP JUMP JUMPDEST PUSH1 0x0 DUP1 SLOAD SWAP1 PUSH2 0x100 EXP SWAP1 DIV PUSH20 0xFFFFFFFFFFFFFFFFFFFFFFFFFFFFFFFFFFFFFFFF AND PUSH20 0xFFFFFFFFFFFFFFFFFFFFFFFFFFFFFFFFFFFFFFFF AND CALLER PUSH20 0xFFFFFFFFFFFFFFFFFFFFFFFFFFFFFFFFFFFFFFFF AND EQ PUSH2 0x12F4 JUMPI PUSH1 0x40 MLOAD PUSH32 0x8C379A000000000000000000000000000000000000000000000000000000000 DUP2 MSTORE PUSH1 0x4 ADD PUSH2 0x12EB SWAP1 PUSH2 0x1BD4 JUMP JUMPDEST PUSH1 0x40 MLOAD DUP1 SWAP2 SUB SWAP1 REVERT JUMPDEST PUSH1 0x0 DUP1 SLOAD SWAP1 PUSH2 0x100 EXP SWAP1 DIV PUSH20 0xFFFFFFFFFFFFFFFFFFFFFFFFFFFFFFFFFFFFFFFF AND PUSH20 0xFFFFFFFFFFFFFFFFFFFFFFFFFFFFFFFFFFFFFFFF AND DUP2 PUSH20 0xFFFFFFFFFFFFFFFFFFFFFFFFFFFFFFFFFFFFFFFF AND EQ ISZERO PUSH2 0x134D JUMPI PUSH1 0x0 DUP1 REVERT JUMPDEST PUSH1 0x0 PUSH20 0xFFFFFFFFFFFFFFFFFFFFFFFFFFFFFFFFFFFFFFFF AND DUP2 PUSH20 0xFFFFFFFFFFFFFFFFFFFFFFFFFFFFFFFFFFFFFFFF AND EQ ISZERO PUSH2 0x1387 JUMPI PUSH1 0x0 DUP1 REVERT JUMPDEST DUP1 PUSH1 0x0 DUP1 PUSH2 0x100 EXP DUP2 SLOAD DUP2 PUSH20 0xFFFFFFFFFFFFFFFFFFFFFFFFFFFFFFFFFFFFFFFF MUL NOT AND SWAP1 DUP4 PUSH20 0xFFFFFFFFFFFFFFFFFFFFFFFFFFFFFFFFFFFFFFFF AND MUL OR SWAP1 SSTORE POP DUP1 PUSH20 0xFFFFFFFFFFFFFFFFFFFFFFFFFFFFFFFFFFFFFFFF AND PUSH1 0x0 DUP1 SLOAD SWAP1 PUSH2 0x100 EXP SWAP1 DIV PUSH20 0xFFFFFFFFFFFFFFFFFFFFFFFFFFFFFFFFFFFFFFFF AND PUSH20 0xFFFFFFFFFFFFFFFFFFFFFFFFFFFFFFFFFFFFFFFF AND PUSH32 0x2AE143016ADC0AA482E6BA5D9A350F3E3122AEB005CA4BF47D1D7B8221BCE472 PUSH1 0x40 MLOAD PUSH1 0x40 MLOAD DUP1 SWAP2 SUB SWAP1 LOG3 POP JUMP JUMPDEST PUSH1 0x40 MLOAD DUP1 PUSH1 0x60 ADD PUSH1 0x40 MSTORE DUP1 PUSH1 0x0 PUSH20 0xFFFFFFFFFFFFFFFFFFFFFFFFFFFFFFFFFFFFFFFF AND DUP2 MSTORE PUSH1 0x20 ADD PUSH1 0x60 DUP2 MSTORE PUSH1 0x20 ADD PUSH1 0x0 PUSH1 0xFF AND DUP2 MSTORE POP SWAP1 JUMP JUMPDEST DUP3 DUP1 SLOAD PUSH2 0x148A SWAP1 PUSH2 0x1E85 JUMP JUMPDEST SWAP1 PUSH1 0x0 MSTORE PUSH1 0x20 PUSH1 0x0 KECCAK256 SWAP1 PUSH1 0x1F ADD PUSH1 0x20 SWAP1 DIV DUP2 ADD SWAP3 DUP3 PUSH2 0x14AC JUMPI PUSH1 0x0 DUP6 SSTORE PUSH2 0x14F3 JUMP JUMPDEST DUP3 PUSH1 0x1F LT PUSH2 0x14C5 JUMPI DUP1 CALLDATALOAD PUSH1 0xFF NOT AND DUP4 DUP1 ADD OR DUP6 SSTORE PUSH2 0x14F3 JUMP JUMPDEST DUP3 DUP1 ADD PUSH1 0x1 ADD DUP6 SSTORE DUP3 ISZERO PUSH2 0x14F3 JUMPI SWAP2 DUP3 ADD JUMPDEST DUP3 DUP2 GT ISZERO PUSH2 0x14F2 JUMPI DUP3 CALLDATALOAD DUP3 SSTORE SWAP2 PUSH1 0x20 ADD SWAP2 SWAP1 PUSH1 0x1 ADD SWAP1 PUSH2 0x14D7 JUMP JUMPDEST JUMPDEST POP SWAP1 POP PUSH2 0x1500 SWAP2 SWAP1 PUSH2 0x1504 JUMP JUMPDEST POP SWAP1 JUMP JUMPDEST JUMPDEST DUP1 DUP3 GT ISZERO PUSH2 0x151D JUMPI PUSH1 0x0 DUP2 PUSH1 0x0 SWAP1 SSTORE POP PUSH1 0x1 ADD PUSH2 0x1505 JUMP JUMPDEST POP SWAP1 JUMP JUMPDEST PUSH1 0x0 DUP1 REVERT JUMPDEST PUSH1 0x0 DUP1 REVERT JUMPDEST PUSH1 0x0 PUSH20 0xFFFFFFFFFFFFFFFFFFFFFFFFFFFFFFFFFFFFFFFF DUP3 AND SWAP1 POP SWAP2 SWAP1 POP JUMP JUMPDEST PUSH1 0x0 PUSH2 0x1556 DUP3 PUSH2 0x152B JUMP JUMPDEST SWAP1 POP SWAP2 SWAP1 POP JUMP JUMPDEST PUSH2 0x1566 DUP2 PUSH2 0x154B JUMP JUMPDEST DUP2 EQ PUSH2 0x1571 JUMPI PUSH1 0x0 DUP1 REVERT JUMPDEST POP JUMP JUMPDEST PUSH1 0x0 DUP2 CALLDATALOAD SWAP1 POP PUSH2 0x1583 DUP2 PUSH2 0x155D JUMP JUMPDEST SWAP3 SWAP2 POP POP JUMP JUMPDEST PUSH1 0x0 PUSH1 0xFF DUP3 AND SWAP1 POP SWAP2 SWAP1 POP JUMP JUMPDEST PUSH2 0x159F DUP2 PUSH2 0x1589 JUMP JUMPDEST DUP2 EQ PUSH2 0x15AA JUMPI PUSH1 0x0 DUP1 REVERT JUMPDEST POP JUMP JUMPDEST PUSH1 0x0 DUP2 CALLDATALOAD SWAP1 POP PUSH2 0x15BC DUP2 PUSH2 0x1596 JUMP JUMPDEST SWAP3 SWAP2 POP POP JUMP JUMPDEST PUSH1 0x0 DUP1 PUSH1 0x40 DUP4 DUP6 SUB SLT ISZERO PUSH2 0x15D9 JUMPI PUSH2 0x15D8 PUSH2 0x1521 JUMP JUMPDEST JUMPDEST PUSH1 0x0 PUSH2 0x15E7 DUP6 DUP3 DUP7 ADD PUSH2 0x1574 JUMP JUMPDEST SWAP3 POP POP PUSH1 0x20 PUSH2 0x15F8 DUP6 DUP3 DUP7 ADD PUSH2 0x15AD JUMP JUMPDEST SWAP2 POP POP SWAP3 POP SWAP3 SWAP1 POP JUMP JUMPDEST PUSH2 0x160B DUP2 PUSH2 0x154B JUMP JUMPDEST DUP3 MSTORE POP POP JUMP JUMPDEST PUSH1 0x0 DUP2 MLOAD SWAP1 POP SWAP2 SWAP1 POP JUMP JUMPDEST PUSH1 0x0 DUP3 DUP3 MSTORE PUSH1 0x20 DUP3 ADD SWAP1 POP SWAP3 SWAP2 POP POP JUMP JUMPDEST PUSH1 0x0 JUMPDEST DUP4 DUP2 LT ISZERO PUSH2 0x164B JUMPI DUP1 DUP3 ADD MLOAD DUP2 DUP5 ADD MSTORE PUSH1 0x20 DUP2 ADD SWAP1 POP PUSH2 0x1630 JUMP JUMPDEST DUP4 DUP2 GT ISZERO PUSH2 0x165A JUMPI PUSH1 0x0 DUP5 DUP5 ADD MSTORE JUMPDEST POP POP POP POP JUMP JUMPDEST PUSH1 0x0 PUSH1 0x1F NOT PUSH1 0x1F DUP4 ADD AND SWAP1 POP SWAP2 SWAP1 POP JUMP JUMPDEST PUSH1 0x0 PUSH2 0x167C DUP3 PUSH2 0x1611 JUMP JUMPDEST PUSH2 0x1686 DUP2 DUP6 PUSH2 0x161C JUMP JUMPDEST SWAP4 POP PUSH2 0x1696 DUP2 DUP6 PUSH1 0x20 DUP7 ADD PUSH2 0x162D JUMP JUMPDEST PUSH2 0x169F DUP2 PUSH2 0x1660 JUMP JUMPDEST DUP5 ADD SWAP2 POP POP SWAP3 SWAP2 POP POP JUMP JUMPDEST PUSH2 0x16B3 DUP2 PUSH2 0x1589 JUMP JUMPDEST DUP3 MSTORE POP POP JUMP JUMPDEST PUSH1 0x0 PUSH1 0x60 DUP4 ADD PUSH1 0x0 DUP4 ADD MLOAD PUSH2 0x16D1 PUSH1 0x0 DUP7 ADD DUP3 PUSH2 0x1602 JUMP JUMPDEST POP PUSH1 0x20 DUP4 ADD MLOAD DUP5 DUP3 SUB PUSH1 0x20 DUP7 ADD MSTORE PUSH2 0x16E9 DUP3 DUP3 PUSH2 0x1671 JUMP JUMPDEST SWAP2 POP POP PUSH1 0x40 DUP4 ADD MLOAD PUSH2 0x16FE PUSH1 0x40 DUP7 ADD DUP3 PUSH2 0x16AA JUMP JUMPDEST POP DUP1 SWAP2 POP POP SWAP3 SWAP2 POP POP JUMP JUMPDEST PUSH1 0x0 PUSH1 0x20 DUP3 ADD SWAP1 POP DUP2 DUP2 SUB PUSH1 0x0 DUP4 ADD MSTORE PUSH2 0x1723 DUP2 DUP5 PUSH2 0x16B9 JUMP JUMPDEST SWAP1 POP SWAP3 SWAP2 POP POP JUMP JUMPDEST PUSH1 0x0 PUSH1 0x20 DUP3 DUP5 SUB SLT ISZERO PUSH2 0x1741 JUMPI PUSH2 0x1740 PUSH2 0x1521 JUMP JUMPDEST JUMPDEST PUSH1 0x0 PUSH2 0x174F DUP5 DUP3 DUP6 ADD PUSH2 0x1574 JUMP JUMPDEST SWAP2 POP POP SWAP3 SWAP2 POP POP JUMP JUMPDEST PUSH1 0x0 DUP2 ISZERO ISZERO SWAP1 POP SWAP2 SWAP1 POP JUMP JUMPDEST PUSH2 0x176D DUP2 PUSH2 0x1758 JUMP JUMPDEST DUP3 MSTORE POP POP JUMP JUMPDEST PUSH1 0x0 PUSH1 0x20 DUP3 ADD SWAP1 POP PUSH2 0x1788 PUSH1 0x0 DUP4 ADD DUP5 PUSH2 0x1764 JUMP JUMPDEST SWAP3 SWAP2 POP POP JUMP JUMPDEST PUSH1 0x0 DUP1 REVERT JUMPDEST PUSH1 0x0 DUP1 REVERT JUMPDEST PUSH1 0x0 DUP1 REVERT JUMPDEST PUSH1 0x0 DUP1 DUP4 PUSH1 0x1F DUP5 ADD SLT PUSH2 0x17B3 JUMPI PUSH2 0x17B2 PUSH2 0x178E JUMP JUMPDEST JUMPDEST DUP3 CALLDATALOAD SWAP1 POP PUSH8 0xFFFFFFFFFFFFFFFF DUP2 GT ISZERO PUSH2 0x17D0 JUMPI PUSH2 0x17CF PUSH2 0x1793 JUMP JUMPDEST JUMPDEST PUSH1 0x20 DUP4 ADD SWAP2 POP DUP4 PUSH1 0x1 DUP3 MUL DUP4 ADD GT ISZERO PUSH2 0x17EC JUMPI PUSH2 0x17EB PUSH2 0x1798 JUMP JUMPDEST JUMPDEST SWAP3 POP SWAP3 SWAP1 POP JUMP JUMPDEST PUSH1 0x0 DUP1 PUSH1 0x0 DUP1 PUSH1 0x0 PUSH1 0x80 DUP7 DUP9 SUB SLT ISZERO PUSH2 0x180F JUMPI PUSH2 0x180E PUSH2 0x1521 JUMP JUMPDEST JUMPDEST PUSH1 0x0 PUSH2 0x181D DUP9 DUP3 DUP10 ADD PUSH2 0x1574 JUMP JUMPDEST SWAP6 POP POP PUSH1 0x20 PUSH2 0x182E DUP9 DUP3 DUP10 ADD PUSH2 0x15AD JUMP JUMPDEST SWAP5 POP POP PUSH1 0x40 PUSH2 0x183F DUP9 DUP3 DUP10 ADD PUSH2 0x15AD JUMP JUMPDEST SWAP4 POP POP PUSH1 0x60 DUP7 ADD CALLDATALOAD PUSH8 0xFFFFFFFFFFFFFFFF DUP2 GT ISZERO PUSH2 0x1860 JUMPI PUSH2 0x185F PUSH2 0x1526 JUMP JUMPDEST JUMPDEST PUSH2 0x186C DUP9 DUP3 DUP10 ADD PUSH2 0x179D JUMP JUMPDEST SWAP3 POP SWAP3 POP POP SWAP3 SWAP6 POP SWAP3 SWAP6 SWAP1 SWAP4 POP JUMP JUMPDEST PUSH1 0x0 PUSH1 0x20 DUP3 DUP5 SUB SLT ISZERO PUSH2 0x1891 JUMPI PUSH2 0x1890 PUSH2 0x1521 JUMP JUMPDEST JUMPDEST PUSH1 0x0 PUSH2 0x189F DUP5 DUP3 DUP6 ADD PUSH2 0x15AD JUMP JUMPDEST SWAP2 POP POP SWAP3 SWAP2 POP POP JUMP JUMPDEST PUSH1 0x0 DUP3 DUP3 MSTORE PUSH1 0x20 DUP3 ADD SWAP1 POP SWAP3 SWAP2 POP POP JUMP JUMPDEST PUSH1 0x0 PUSH2 0x18C4 DUP3 PUSH2 0x1611 JUMP JUMPDEST PUSH2 0x18CE DUP2 DUP6 PUSH2 0x18A8 JUMP JUMPDEST SWAP4 POP PUSH2 0x18DE DUP2 DUP6 PUSH1 0x20 DUP7 ADD PUSH2 0x162D JUMP JUMPDEST PUSH2 0x18E7 DUP2 PUSH2 0x1660 JUMP JUMPDEST DUP5 ADD SWAP2 POP POP SWAP3 SWAP2 POP POP JUMP JUMPDEST PUSH1 0x0 PUSH1 0x20 DUP3 ADD SWAP1 POP DUP2 DUP2 SUB PUSH1 0x0 DUP4 ADD MSTORE PUSH2 0x190C DUP2 DUP5 PUSH2 0x18B9 JUMP JUMPDEST SWAP1 POP SWAP3 SWAP2 POP POP JUMP JUMPDEST PUSH2 0x191D DUP2 PUSH2 0x1589 JUMP JUMPDEST DUP3 MSTORE POP POP JUMP JUMPDEST PUSH1 0x0 PUSH1 0x40 DUP3 ADD SWAP1 POP PUSH2 0x1938 PUSH1 0x0 DUP4 ADD DUP6 PUSH2 0x1764 JUMP JUMPDEST PUSH2 0x1945 PUSH1 0x20 DUP4 ADD DUP5 PUSH2 0x1914 JUMP JUMPDEST SWAP4 SWAP3 POP POP POP JUMP JUMPDEST PUSH1 0x0 DUP1 PUSH1 0x20 DUP4 DUP6 SUB SLT ISZERO PUSH2 0x1963 JUMPI PUSH2 0x1962 PUSH2 0x1521 JUMP JUMPDEST JUMPDEST PUSH1 0x0 DUP4 ADD CALLDATALOAD PUSH8 0xFFFFFFFFFFFFFFFF DUP2 GT ISZERO PUSH2 0x1981 JUMPI PUSH2 0x1980 PUSH2 0x1526 JUMP JUMPDEST JUMPDEST PUSH2 0x198D DUP6 DUP3 DUP7 ADD PUSH2 0x179D JUMP JUMPDEST SWAP3 POP SWAP3 POP POP SWAP3 POP SWAP3 SWAP1 POP JUMP JUMPDEST PUSH32 0xE29D97EFB88F20EC9DB4ECA084EC979020EBB0B1EC8BA020ECA69DEBAA85EC84 PUSH1 0x0 DUP3 ADD MSTORE PUSH32 0x9CEBA5BC20EBB09CEAB889EBB09BEC9D8020ECA084ECA081EC9DB420EC9786EC PUSH1 0x20 DUP3 ADD MSTORE PUSH32 0x8AB5EB8B88EB8BA42E0000000000000000000000000000000000000000000000 PUSH1 0x40 DUP3 ADD MSTORE POP JUMP JUMPDEST PUSH1 0x0 PUSH2 0x1A1B PUSH1 0x49 DUP4 PUSH2 0x18A8 JUMP JUMPDEST SWAP2 POP PUSH2 0x1A26 DUP3 PUSH2 0x1999 JUMP JUMPDEST PUSH1 0x60 DUP3 ADD SWAP1 POP SWAP2 SWAP1 POP JUMP JUMPDEST PUSH1 0x0 PUSH1 0x20 DUP3 ADD SWAP1 POP DUP2 DUP2 SUB PUSH1 0x0 DUP4 ADD MSTORE PUSH2 0x1A4A DUP2 PUSH2 0x1A0E JUMP JUMPDEST SWAP1 POP SWAP2 SWAP1 POP JUMP JUMPDEST PUSH32 0xE29D97EFB88F20ED95B4EB8BB920ECB0A8EC8898EC9D9820EBB0B1EC8BA020EC PUSH1 0x0 DUP3 ADD MSTORE PUSH32 0xA091ECA285EC9D8420EBB09BEC9D8020ECA08120EC9786EC8AB5EB8B88EB8BA4 PUSH1 0x20 DUP3 ADD MSTORE PUSH32 0x2E00000000000000000000000000000000000000000000000000000000000000 PUSH1 0x40 DUP3 ADD MSTORE POP JUMP JUMPDEST PUSH1 0x0 PUSH2 0x1AD3 PUSH1 0x41 DUP4 PUSH2 0x18A8 JUMP JUMPDEST SWAP2 POP PUSH2 0x1ADE DUP3 PUSH2 0x1A51 JUMP JUMPDEST PUSH1 0x60 DUP3 ADD SWAP1 POP SWAP2 SWAP1 POP JUMP JUMPDEST PUSH1 0x0 PUSH1 0x20 DUP3 ADD SWAP1 POP DUP2 DUP2 SUB PUSH1 0x0 DUP4 ADD MSTORE PUSH2 0x1B02 DUP2 PUSH2 0x1AC6 JUMP JUMPDEST SWAP1 POP SWAP2 SWAP1 POP JUMP JUMPDEST PUSH32 0x4E487B7100000000000000000000000000000000000000000000000000000000 PUSH1 0x0 MSTORE PUSH1 0x11 PUSH1 0x4 MSTORE PUSH1 0x24 PUSH1 0x0 REVERT JUMPDEST PUSH1 0x0 PUSH2 0x1B43 DUP3 PUSH2 0x1589 JUMP JUMPDEST SWAP2 POP PUSH1 0xFF DUP3 EQ ISZERO PUSH2 0x1B57 JUMPI PUSH2 0x1B56 PUSH2 0x1B09 JUMP JUMPDEST JUMPDEST PUSH1 0x1 DUP3 ADD SWAP1 POP SWAP2 SWAP1 POP JUMP JUMPDEST PUSH32 0xE29D97EFB88F206D73672E73656E646572EAB080206F776E6572EAB08020EC95 PUSH1 0x0 DUP3 ADD MSTORE PUSH32 0x84EB8B99EB8B88EB8BA42E000000000000000000000000000000000000000000 PUSH1 0x20 DUP3 ADD MSTORE POP JUMP JUMPDEST PUSH1 0x0 PUSH2 0x1BBE PUSH1 0x2B DUP4 PUSH2 0x18A8 JUMP JUMPDEST SWAP2 POP PUSH2 0x1BC9 DUP3 PUSH2 0x1B62 JUMP JUMPDEST PUSH1 0x40 DUP3 ADD SWAP1 POP SWAP2 SWAP1 POP JUMP JUMPDEST PUSH1 0x0 PUSH1 0x20 DUP3 ADD SWAP1 POP DUP2 DUP2 SUB PUSH1 0x0 DUP4 ADD MSTORE PUSH2 0x1BED DUP2 PUSH2 0x1BB1 JUMP JUMPDEST SWAP1 POP SWAP2 SWAP1 POP JUMP JUMPDEST PUSH32 0xE29D97EFB88F206D73672E73656E646572EAB08020497373756572EAB08020EC PUSH1 0x0 DUP3 ADD MSTORE PUSH32 0x9584EB8B99EB8B88EB8BA42E0000000000000000000000000000000000000000 PUSH1 0x20 DUP3 ADD MSTORE POP JUMP JUMPDEST PUSH1 0x0 PUSH2 0x1C50 PUSH1 0x2C DUP4 PUSH2 0x18A8 JUMP JUMPDEST SWAP2 POP PUSH2 0x1C5B DUP3 PUSH2 0x1BF4 JUMP JUMPDEST PUSH1 0x40 DUP3 ADD SWAP1 POP SWAP2 SWAP1 POP JUMP JUMPDEST PUSH1 0x0 PUSH1 0x20 DUP3 ADD SWAP1 POP DUP2 DUP2 SUB PUSH1 0x0 DUP4 ADD MSTORE PUSH2 0x1C7F DUP2 PUSH2 0x1C43 JUMP JUMPDEST SWAP1 POP SWAP2 SWAP1 POP JUMP JUMPDEST PUSH32 0xE29D97EFB88F20EC9DB4ECA084EC979020EBB0B1EC8BA020ECA69DEBAA85EC84 PUSH1 0x0 DUP3 ADD MSTORE PUSH32 0x9CEBA5BC20EBB09CEAB88920EBB09BEC9D8020ECA084ECA081EC9DB420EC9E88 PUSH1 0x20 DUP3 ADD MSTORE PUSH32 0xEC8AB5EB8B88EB8BA42E00000000000000000000000000000000000000000000 PUSH1 0x40 DUP3 ADD MSTORE POP JUMP JUMPDEST PUSH1 0x0 PUSH2 0x1D08 PUSH1 0x4A DUP4 PUSH2 0x18A8 JUMP JUMPDEST SWAP2 POP PUSH2 0x1D13 DUP3 PUSH2 0x1C86 JUMP JUMPDEST PUSH1 0x60 DUP3 ADD SWAP1 POP SWAP2 SWAP1 POP JUMP JUMPDEST PUSH1 0x0 PUSH1 0x20 DUP3 ADD SWAP1 POP DUP2 DUP2 SUB PUSH1 0x0 DUP4 ADD MSTORE PUSH2 0x1D37 DUP2 PUSH2 0x1CFB JUMP JUMPDEST SWAP1 POP SWAP2 SWAP1 POP JUMP JUMPDEST PUSH32 0xE29D97EFB88F206EECB0A820ECA091ECA285EBB680ED84B0EB8A9420ECA69DEB PUSH1 0x0 DUP3 ADD MSTORE PUSH32 0xAA85EC849C20EAB0B1EC8BA020EAB8B0EB8AA5EC9D8420EC82ACEC9AA9ED95B4 PUSH1 0x20 DUP3 ADD MSTORE PUSH32 0xECA3BCEC84B8EC9A942E00000000000000000000000000000000000000000000 PUSH1 0x40 DUP3 ADD MSTORE POP JUMP JUMPDEST PUSH1 0x0 PUSH2 0x1DC0 PUSH1 0x4A DUP4 PUSH2 0x18A8 JUMP JUMPDEST SWAP2 POP PUSH2 0x1DCB DUP3 PUSH2 0x1D3E JUMP JUMPDEST PUSH1 0x60 DUP3 ADD SWAP1 POP SWAP2 SWAP1 POP JUMP JUMPDEST PUSH1 0x0 PUSH1 0x20 DUP3 ADD SWAP1 POP DUP2 DUP2 SUB PUSH1 0x0 DUP4 ADD MSTORE PUSH2 0x1DEF DUP2 PUSH2 0x1DB3 JUMP JUMPDEST SWAP1 POP SWAP2 SWAP1 POP JUMP JUMPDEST PUSH1 0x0 DUP2 SWAP1 POP SWAP2 SWAP1 POP JUMP JUMPDEST PUSH1 0x0 PUSH2 0x1E0B DUP3 PUSH2 0x1DF6 JUMP JUMPDEST SWAP2 POP PUSH2 0x1E16 DUP4 PUSH2 0x1DF6 JUMP JUMPDEST SWAP3 POP DUP3 PUSH32 0xFFFFFFFFFFFFFFFFFFFFFFFFFFFFFFFFFFFFFFFFFFFFFFFFFFFFFFFFFFFFFFFF SUB DUP3 GT ISZERO PUSH2 0x1E4B JUMPI PUSH2 0x1E4A PUSH2 0x1B09 JUMP JUMPDEST JUMPDEST DUP3 DUP3 ADD SWAP1 POP SWAP3 SWAP2 POP POP JUMP JUMPDEST PUSH32 0x4E487B7100000000000000000000000000000000000000000000000000000000 PUSH1 0x0 MSTORE PUSH1 0x22 PUSH1 0x4 MSTORE PUSH1 0x24 PUSH1 0x0 REVERT JUMPDEST PUSH1 0x0 PUSH1 0x2 DUP3 DIV SWAP1 POP PUSH1 0x1 DUP3 AND DUP1 PUSH2 0x1E9D JUMPI PUSH1 0x7F DUP3 AND SWAP2 POP JUMPDEST PUSH1 0x20 DUP3 LT DUP2 EQ ISZERO PUSH2 0x1EB1 JUMPI PUSH2 0x1EB0 PUSH2 0x1E56 JUMP JUMPDEST JUMPDEST POP SWAP2 SWAP1 POP JUMP JUMPDEST PUSH1 0x0 PUSH2 0x1EC2 DUP3 PUSH2 0x1589 JUMP JUMPDEST SWAP2 POP PUSH2 0x1ECD DUP4 PUSH2 0x1589 JUMP JUMPDEST SWAP3 POP DUP3 PUSH1 0xFF SUB DUP3 GT ISZERO PUSH2 0x1EE3 JUMPI PUSH2 0x1EE2 PUSH2 0x1B09 JUMP JUMPDEST JUMPDEST DUP3 DUP3 ADD SWAP1 POP SWAP3 SWAP2 POP POP JUMP JUMPDEST PUSH32 0xE29D97EFB88F20EC98ACEBB094EBA5B820ECA091ECA28520ECB0A8EC8898EAB0 PUSH1 0x0 DUP3 ADD MSTORE PUSH32 0x8020EC9584EB8B99EB8B88EB8BA42E0000000000000000000000000000000000 PUSH1 0x20 DUP3 ADD MSTORE POP JUMP JUMPDEST PUSH1 0x0 PUSH2 0x1F4A PUSH1 0x2F DUP4 PUSH2 0x18A8 JUMP JUMPDEST SWAP2 POP PUSH2 0x1F55 DUP3 PUSH2 0x1EEE JUMP JUMPDEST PUSH1 0x40 DUP3 ADD SWAP1 POP SWAP2 SWAP1 POP JUMP JUMPDEST PUSH1 0x0 PUSH1 0x20 DUP3 ADD SWAP1 POP DUP2 DUP2 SUB PUSH1 0x0 DUP4 ADD MSTORE PUSH2 0x1F79 DUP2 PUSH2 0x1F3D JUMP JUMPDEST SWAP1 POP SWAP2 SWAP1 POP JUMP JUMPDEST PUSH1 0x0 PUSH2 0x1F8B DUP3 PUSH2 0x1589 JUMP JUMPDEST SWAP2 POP PUSH2 0x1F96 DUP4 PUSH2 0x1589 JUMP JUMPDEST SWAP3 POP DUP3 DUP3 LT ISZERO PUSH2 0x1FA9 JUMPI PUSH2 0x1FA8 PUSH2 0x1B09 JUMP JUMPDEST JUMPDEST DUP3 DUP3 SUB SWAP1 POP SWAP3 SWAP2 POP POP JUMP JUMPDEST PUSH32 0xE29D97EFB88F20EC98ACEBB094EBA5B820EBB0B1EC8BA020ECA285EBA598EAB0 PUSH1 0x0 DUP3 ADD MSTORE PUSH32 0x8020EC9584EB8B99EB8B88EB8BA42E0000000000000000000000000000000000 PUSH1 0x20 DUP3 ADD MSTORE POP JUMP JUMPDEST PUSH1 0x0 PUSH2 0x2010 PUSH1 0x2F DUP4 PUSH2 0x18A8 JUMP JUMPDEST SWAP2 POP PUSH2 0x201B DUP3 PUSH2 0x1FB4 JUMP JUMPDEST PUSH1 0x40 DUP3 ADD SWAP1 POP SWAP2 SWAP1 POP JUMP JUMPDEST PUSH1 0x0 PUSH1 0x20 DUP3 ADD SWAP1 POP DUP2 DUP2 SUB PUSH1 0x0 DUP4 ADD MSTORE PUSH2 0x203F DUP2 PUSH2 0x2003 JUMP JUMPDEST SWAP1 POP SWAP2 SWAP1 POP JUMP JUMPDEST PUSH1 0x0 DUP2 SWAP1 POP SWAP3 SWAP2 POP POP JUMP JUMPDEST PUSH1 0x0 DUP2 SWAP1 POP DUP2 PUSH1 0x0 MSTORE PUSH1 0x20 PUSH1 0x0 KECCAK256 SWAP1 POP SWAP2 SWAP1 POP JUMP JUMPDEST PUSH1 0x0 DUP2 SLOAD PUSH2 0x2073 DUP2 PUSH2 0x1E85 JUMP JUMPDEST PUSH2 0x207D DUP2 DUP7 PUSH2 0x2046 JUMP JUMPDEST SWAP5 POP PUSH1 0x1 DUP3 AND PUSH1 0x0 DUP2 EQ PUSH2 0x2098 JUMPI PUSH1 0x1 DUP2 EQ PUSH2 0x20A9 JUMPI PUSH2 0x20DC JUMP JUMPDEST PUSH1 0xFF NOT DUP4 AND DUP7 MSTORE DUP2 DUP7 ADD SWAP4 POP PUSH2 0x20DC JUMP JUMPDEST PUSH2 0x20B2 DUP6 PUSH2 0x2051 JUMP JUMPDEST PUSH1 0x0 JUMPDEST DUP4 DUP2 LT ISZERO PUSH2 0x20D4 JUMPI DUP2 SLOAD DUP2 DUP10 ADD MSTORE PUSH1 0x1 DUP3 ADD SWAP2 POP PUSH1 0x20 DUP2 ADD SWAP1 POP PUSH2 0x20B5 JUMP JUMPDEST DUP4 DUP9 ADD SWAP6 POP POP POP JUMPDEST POP POP POP SWAP3 SWAP2 POP POP JUMP JUMPDEST PUSH1 0x0 PUSH2 0x20F1 DUP3 DUP5 PUSH2 0x2066 JUMP JUMPDEST SWAP2 POP DUP2 SWAP1 POP SWAP3 SWAP2 POP POP JUMP JUMPDEST DUP3 DUP2 DUP4 CALLDATACOPY PUSH1 0x0 DUP4 DUP4 ADD MSTORE POP POP POP JUMP JUMPDEST PUSH1 0x0 PUSH2 0x2117 DUP4 DUP6 PUSH2 0x2046 JUMP JUMPDEST SWAP4 POP PUSH2 0x2124 DUP4 DUP6 DUP5 PUSH2 0x20FC JUMP JUMPDEST DUP3 DUP5 ADD SWAP1 POP SWAP4 SWAP3 POP POP POP JUMP JUMPDEST PUSH1 0x0 PUSH2 0x213D DUP3 DUP5 DUP7 PUSH2 0x210B JUMP JUMPDEST SWAP2 POP DUP2 SWAP1 POP SWAP4 SWAP3 POP POP POP JUMP JUMPDEST PUSH32 0xE29D97EFB88F20EC9DB4EBAFB820ECA1B4EC9EACED9598EB8A9420EBB0B1EC8B PUSH1 0x0 DUP3 ADD MSTORE PUSH32 0xA020ECA285EBA598EC9E85EB8B88EB8BA42E0000000000000000000000000000 PUSH1 0x20 DUP3 ADD MSTORE POP JUMP JUMPDEST PUSH1 0x0 PUSH2 0x21A5 PUSH1 0x32 DUP4 PUSH2 0x18A8 JUMP JUMPDEST SWAP2 POP PUSH2 0x21B0 DUP3 PUSH2 0x2149 JUMP JUMPDEST PUSH1 0x40 DUP3 ADD SWAP1 POP SWAP2 SWAP1 POP JUMP JUMPDEST PUSH1 0x0 PUSH1 0x20 DUP3 ADD SWAP1 POP DUP2 DUP2 SUB PUSH1 0x0 DUP4 ADD MSTORE PUSH2 0x21D4 DUP2 PUSH2 0x2198 JUMP JUMPDEST SWAP1 POP SWAP2 SWAP1 POP JUMP INVALID LOG2 PUSH5 0x6970667358 0x22 SLT KECCAK256 OR MUL 0xE0 CREATE2 EXTCODESIZE 0xC8 SWAP7 0xB3 SELFDESTRUCT 0xEF 0xEA RETURN 0xA8 0xAC DIV ADDMOD 0xD DUP12 PUSH11 0x9226578F1E38A7E78FCD93 0xE8 MLOAD PUSH5 0x736F6C6343 STOP ADDMOD SIGNEXTEND STOP CALLER "
		},
		"gasEstimates": {
			"creation": {
				"codeDepositCost": "1744200",
				"executionCost": "infinite",
				"totalCost": "infinite"
			},
			"external": {
				"addIssuer(address)": "30629",
				"addVaccineType(string)": "infinite",
				"checkVaccineCredential(address,uint8)": "infinite",
				"claimCredential(address,uint8,uint8,string)": "infinite",
				"delIssuer(address)": "30651",
				"findVaccineType(address,uint8)": "infinite",
				"getVaccineType(uint8)": "infinite",
				"isIssuer(address)": "2905",
				"issuers(address)": "2934",
				"transferOwnership(address)": "32886",
				"updateCredential(address,uint8,uint8,string)": "infinite"
			}
		},
		"methodIdentifiers": {
			"addIssuer(address)": "20694db0",
			"addVaccineType(string)": "d1658546",
			"checkVaccineCredential(address,uint8)": "0dc3be9e",
			"claimCredential(address,uint8,uint8,string)": "36145996",
			"delIssuer(address)": "34becfb4",
			"findVaccineType(address,uint8)": "c67e96d2",
			"getVaccineType(uint8)": "3f8a37dc",
			"isIssuer(address)": "877b9a67",
			"issuers(address)": "38a7543e",
			"transferOwnership(address)": "f2fde38b",
			"updateCredential(address,uint8,uint8,string)": "ceef5b95"
		}
	},
	"abi": [
		{
			"inputs": [],
			"stateMutability": "nonpayable",
			"type": "constructor"
		},
		{
			"anonymous": false,
			"inputs": [
				{
					"indexed": true,
					"internalType": "address",
					"name": "_issuer",
					"type": "address"
				}
			],
			"name": "AddIssuer",
			"type": "event"
		},
		{
			"anonymous": false,
			"inputs": [
				{
					"indexed": true,
					"internalType": "address",
					"name": "_issuer",
					"type": "address"
				}
			],
			"name": "DelIssuer",
			"type": "event"
		},
		{
			"anonymous": false,
			"inputs": [
				{
					"indexed": true,
					"internalType": "address",
					"name": "_from",
					"type": "address"
				},
				{
					"indexed": true,
					"internalType": "address",
					"name": "_to",
					"type": "address"
				}
			],
			"name": "OwnerTransferPropose",
			"type": "event"
		},
		{
			"inputs": [
				{
					"internalType": "address",
					"name": "_addr",
					"type": "address"
				}
			],
			"name": "addIssuer",
			"outputs": [
				{
					"internalType": "bool",
					"name": "",
					"type": "bool"
				}
			],
			"stateMutability": "nonpayable",
			"type": "function"
		},
		{
			"inputs": [
				{
					"internalType": "string",
					"name": "_vaccineType",
					"type": "string"
				}
			],
			"name": "addVaccineType",
			"outputs": [
				{
					"internalType": "bool",
					"name": "",
					"type": "bool"
				}
			],
			"stateMutability": "nonpayable",
			"type": "function"
		},
		{
			"inputs": [
				{
					"internalType": "address",
					"name": "_humanAddress",
					"type": "address"
				},
				{
					"internalType": "uint8",
					"name": "_vaccineNum",
					"type": "uint8"
				}
			],
			"name": "checkVaccineCredential",
			"outputs": [
				{
					"components": [
						{
							"internalType": "address",
							"name": "issuer",
							"type": "address"
						},
						{
							"internalType": "string",
							"name": "vaccineType",
							"type": "string"
						},
						{
							"internalType": "uint8",
							"name": "vaccineNum",
							"type": "uint8"
						}
					],
					"internalType": "struct CredentialBox.Presentation",
					"name": "",
					"type": "tuple"
				}
			],
			"stateMutability": "view",
			"type": "function"
		},
		{
			"inputs": [
				{
					"internalType": "address",
					"name": "_humanAddress",
					"type": "address"
				},
				{
					"internalType": "uint8",
					"name": "_vaccineNum",
					"type": "uint8"
				},
				{
					"internalType": "uint8",
					"name": "_vaccineType",
					"type": "uint8"
				},
				{
					"internalType": "string",
					"name": "_value",
					"type": "string"
				}
			],
			"name": "claimCredential",
			"outputs": [
				{
					"internalType": "bool",
					"name": "",
					"type": "bool"
				}
			],
			"stateMutability": "nonpayable",
			"type": "function"
		},
		{
			"inputs": [
				{
					"internalType": "address",
					"name": "_addr",
					"type": "address"
				}
			],
			"name": "delIssuer",
			"outputs": [
				{
					"internalType": "bool",
					"name": "",
					"type": "bool"
				}
			],
			"stateMutability": "nonpayable",
			"type": "function"
		},
		{
			"inputs": [
				{
					"internalType": "address",
					"name": "_humanAddress",
					"type": "address"
				},
				{
					"internalType": "uint8",
					"name": "_vaccineNum",
					"type": "uint8"
				}
			],
			"name": "findVaccineType",
			"outputs": [
				{
					"internalType": "bool",
					"name": "",
					"type": "bool"
				},
				{
					"internalType": "uint8",
					"name": "",
					"type": "uint8"
				}
			],
			"stateMutability": "view",
			"type": "function"
		},
		{
			"inputs": [
				{
					"internalType": "uint8",
					"name": "_type",
					"type": "uint8"
				}
			],
			"name": "getVaccineType",
			"outputs": [
				{
					"internalType": "string",
					"name": "",
					"type": "string"
				}
			],
			"stateMutability": "view",
			"type": "function"
		},
		{
			"inputs": [
				{
					"internalType": "address",
					"name": "_addr",
					"type": "address"
				}
			],
			"name": "isIssuer",
			"outputs": [
				{
					"internalType": "bool",
					"name": "",
					"type": "bool"
				}
			],
			"stateMutability": "view",
			"type": "function"
		},
		{
			"inputs": [
				{
					"internalType": "address",
					"name": "",
					"type": "address"
				}
			],
			"name": "issuers",
			"outputs": [
				{
					"internalType": "bool",
					"name": "",
					"type": "bool"
				}
			],
			"stateMutability": "view",
			"type": "function"
		},
		{
			"inputs": [
				{
					"internalType": "address",
					"name": "_to",
					"type": "address"
				}
			],
			"name": "transferOwnership",
			"outputs": [],
			"stateMutability": "nonpayable",
			"type": "function"
		},
		{
			"inputs": [
				{
					"internalType": "address",
					"name": "_humanAddress",
					"type": "address"
				},
				{
					"internalType": "uint8",
					"name": "_vaccineNum",
					"type": "uint8"
				},
				{
					"internalType": "uint8",
					"name": "_vaccineType",
					"type": "uint8"
				},
				{
					"internalType": "string",
					"name": "_value",
					"type": "string"
				}
			],
			"name": "updateCredential",
			"outputs": [
				{
					"internalType": "bool",
					"name": "",
					"type": "bool"
				}
			],
			"stateMutability": "nonpayable",
			"type": "function"
		}
	]
}