{
  "contractName": "CredentialBox",
  "abi": [
    {
      "inputs": [],
      "stateMutability": "nonpayable",
      "type": "constructor"
    },
    {
      "anonymous": false,
      "inputs": [
        {
          "indexed": true,
          "internalType": "address",
          "name": "_issuer",
          "type": "address"
        }
      ],
      "name": "AddIssuer",
      "type": "event"
    },
    {
      "anonymous": false,
      "inputs": [
        {
          "indexed": true,
          "internalType": "address",
          "name": "_issuer",
          "type": "address"
        }
      ],
      "name": "DelIssuer",
      "type": "event"
    },
    {
      "anonymous": false,
      "inputs": [
        {
          "indexed": true,
          "internalType": "address",
          "name": "_from",
          "type": "address"
        },
        {
          "indexed": true,
          "internalType": "address",
          "name": "_to",
          "type": "address"
        }
      ],
      "name": "OwnerTransferPropose",
      "type": "event"
    },
    {
      "inputs": [
        {
          "internalType": "address",
          "name": "_addr",
          "type": "address"
        }
      ],
      "name": "addIssuer",
      "outputs": [
        {
          "internalType": "bool",
          "name": "",
          "type": "bool"
        }
      ],
      "stateMutability": "nonpayable",
      "type": "function"
    },
    {
      "inputs": [
        {
          "internalType": "address",
          "name": "_addr",
          "type": "address"
        }
      ],
      "name": "delIssuer",
      "outputs": [
        {
          "internalType": "bool",
          "name": "",
          "type": "bool"
        }
      ],
      "stateMutability": "nonpayable",
      "type": "function"
    },
    {
      "inputs": [
        {
          "internalType": "address",
          "name": "_addr",
          "type": "address"
        }
      ],
      "name": "isIssuer",
      "outputs": [
        {
          "internalType": "bool",
          "name": "",
          "type": "bool"
        }
      ],
      "stateMutability": "view",
      "type": "function",
      "constant": true
    },
    {
      "inputs": [
        {
          "internalType": "address",
          "name": "",
          "type": "address"
        }
      ],
      "name": "issuers",
      "outputs": [
        {
          "internalType": "bool",
          "name": "",
          "type": "bool"
        }
      ],
      "stateMutability": "view",
      "type": "function",
      "constant": true
    },
    {
      "inputs": [
        {
          "internalType": "address",
          "name": "_to",
          "type": "address"
        }
      ],
      "name": "transferOwnership",
      "outputs": [],
      "stateMutability": "nonpayable",
      "type": "function"
    },
    {
      "inputs": [
        {
          "internalType": "address",
          "name": "_humanAddress",
          "type": "address"
        },
        {
          "internalType": "uint8",
          "name": "_vaccineNum",
          "type": "uint8"
        },
        {
          "internalType": "uint8",
          "name": "_vaccineType",
          "type": "uint8"
        },
        {
          "internalType": "string",
          "name": "_value",
          "type": "string"
        }
      ],
      "name": "claimCredential",
      "outputs": [
        {
          "internalType": "bool",
          "name": "",
          "type": "bool"
        }
      ],
      "stateMutability": "nonpayable",
      "type": "function"
    },
    {
      "inputs": [
        {
          "internalType": "address",
          "name": "_humanAddress",
          "type": "address"
        },
        {
          "internalType": "uint8",
          "name": "_vaccineNum",
          "type": "uint8"
        }
      ],
      "name": "checkVaccineCredential",
      "outputs": [
        {
          "components": [
            {
              "internalType": "address",
              "name": "issuer",
              "type": "address"
            },
            {
              "internalType": "string",
              "name": "value",
              "type": "string"
            },
            {
              "internalType": "string",
              "name": "vaccineType",
              "type": "string"
            },
            {
              "internalType": "uint8",
              "name": "vaccineNum",
              "type": "uint8"
            }
          ],
          "internalType": "struct CredentialBox.Presentation",
          "name": "",
          "type": "tuple"
        }
      ],
      "stateMutability": "view",
      "type": "function",
      "constant": true
    },
    {
      "inputs": [
        {
          "internalType": "address",
          "name": "_humanAddress",
          "type": "address"
        },
        {
          "internalType": "uint8",
          "name": "_vaccineNum",
          "type": "uint8"
        }
      ],
      "name": "findVaccineType",
      "outputs": [
        {
          "internalType": "bool",
          "name": "",
          "type": "bool"
        },
        {
          "internalType": "uint8",
          "name": "",
          "type": "uint8"
        }
      ],
      "stateMutability": "view",
      "type": "function",
      "constant": true
    },
    {
      "inputs": [
        {
          "internalType": "string",
          "name": "_vaccineType",
          "type": "string"
        }
      ],
      "name": "addVaccineType",
      "outputs": [
        {
          "internalType": "bool",
          "name": "",
          "type": "bool"
        }
      ],
      "stateMutability": "nonpayable",
      "type": "function"
    },
    {
      "inputs": [
        {
          "internalType": "uint8",
          "name": "_type",
          "type": "uint8"
        }
      ],
      "name": "getVaccineType",
      "outputs": [
        {
          "internalType": "string",
          "name": "",
          "type": "string"
        }
      ],
      "stateMutability": "view",
      "type": "function",
      "constant": true
    },
    {
      "inputs": [
        {
          "internalType": "address",
          "name": "_humanAddress",
          "type": "address"
        },
        {
          "internalType": "uint8",
          "name": "_vaccineNum",
          "type": "uint8"
        },
        {
          "internalType": "uint8",
          "name": "_vaccineType",
          "type": "uint8"
        },
        {
          "internalType": "string",
          "name": "_value",
          "type": "string"
        }
      ],
      "name": "updateCredential",
      "outputs": [
        {
          "internalType": "bool",
          "name": "",
          "type": "bool"
        }
      ],
      "stateMutability": "nonpayable",
      "type": "function"
    }
  ],
  "bytecode": "0x60806040523480156200001157600080fd5b50336000806101000a81548173ffffffffffffffffffffffffffffffffffffffff021916908373ffffffffffffffffffffffffffffffffffffffff16021790555060018060003373ffffffffffffffffffffffffffffffffffffffff1673ffffffffffffffffffffffffffffffffffffffff16815260200190815260200160002060006101000a81548160ff02191690831515021790555060016002819055506040518060400160405280600281526020017f5943000000000000000000000000000000000000000000000000000000000000815250600360008060ff1681526020019081526020016000209080519060200190620001129291906200025d565b506040518060400160405280600381526020017f4d444e000000000000000000000000000000000000000000000000000000000081525060036000600160ff1681526020019081526020016000209080519060200190620001759291906200025d565b506040518060400160405280600381526020017f48575a000000000000000000000000000000000000000000000000000000000081525060036000600260ff1681526020019081526020016000209080519060200190620001d89291906200025d565b506040518060400160405280600281526020017f415a00000000000000000000000000000000000000000000000000000000000081525060036000600360ff16815260200190815260200160002090805190602001906200023b9291906200025d565b5060048060006101000a81548160ff021916908360ff16021790555062000372565b8280546200026b906200033c565b90600052602060002090601f0160209004810192826200028f5760008555620002db565b82601f10620002aa57805160ff1916838001178555620002db565b82800160010185558215620002db579182015b82811115620002da578251825591602001919060010190620002bd565b5b509050620002ea9190620002ee565b5090565b5b8082111562000309576000816000905550600101620002ef565b5090565b7f4e487b7100000000000000000000000000000000000000000000000000000000600052602260045260246000fd5b600060028204905060018216806200035557607f821691505b602082108114156200036c576200036b6200030d565b5b50919050565b61181480620003826000396000f3fe608060405234801561001057600080fd5b50600436106100a95760003560e01c80633f8a37dc116100715780633f8a37dc1461019e578063877b9a67146101ce578063c67e96d2146101fe578063ceef5b951461022f578063d16585461461025f578063f2fde38b1461028f576100a9565b80630dc3be9e146100ae57806320694db0146100de57806334becfb41461010e578063361459961461013e57806338a7543e1461016e575b600080fd5b6100c860048036038101906100c39190611268565b6102ab565b6040516100d591906113c9565b60405180910390f35b6100f860048036038101906100f391906113eb565b610599565b6040516101059190611433565b60405180910390f35b610128600480360381019061012391906113eb565b6106f4565b6040516101359190611433565b60405180910390f35b610158600480360381019061015391906114b3565b610850565b6040516101659190611433565b60405180910390f35b610188600480360381019061018391906113eb565b6109ed565b6040516101959190611433565b60405180910390f35b6101b860048036038101906101b3919061153b565b610a0d565b6040516101c591906115b2565b60405180910390f35b6101e860048036038101906101e391906113eb565b610ab8565b6040516101f59190611433565b60405180910390f35b61021860048036038101906102139190611268565b610b0e565b6040516102269291906115e3565b60405180910390f35b610249600480360381019061024491906114b3565b610bf4565b6040516102569190611433565b60405180910390f35b6102796004803603810190610274919061160c565b610ea6565b6040516102869190611433565b60405180910390f35b6102a960048036038101906102a491906113eb565b610f3b565b005b6102b36110e3565b6000600560008573ffffffffffffffffffffffffffffffffffffffff1673ffffffffffffffffffffffffffffffffffffffff16815260200190815260200160002060000154141561030357600080fd5b600560008473ffffffffffffffffffffffffffffffffffffffff1673ffffffffffffffffffffffffffffffffffffffff16815260200190815260200160002060040160009054906101000a900460ff1660ff168260ff16111561036557600080fd5b606060005b600460009054906101000a900460ff1660ff168160ff161015610422576000600560008773ffffffffffffffffffffffffffffffffffffffff1673ffffffffffffffffffffffffffffffffffffffff16815260200190815260200160002060030160008660ff1660ff16815260200190815260200160002060008360ff1660ff168152602001908152602001600020541461040f5761040881610a0d565b9150610422565b808061041a90611688565b91505061036a565b5060006040518060800160405280600560008873ffffffffffffffffffffffffffffffffffffffff1673ffffffffffffffffffffffffffffffffffffffff16815260200190815260200160002060010160009054906101000a900473ffffffffffffffffffffffffffffffffffffffff1673ffffffffffffffffffffffffffffffffffffffff168152602001600560008873ffffffffffffffffffffffffffffffffffffffff1673ffffffffffffffffffffffffffffffffffffffff16815260200190815260200160002060020180546104fb906116e1565b80601f0160208091040260200160405190810160405280929190818152602001828054610527906116e1565b80156105745780601f1061054957610100808354040283529160200191610574565b820191906000526020600020905b81548152906001019060200180831161055757829003601f168201915b50505050508152602001838152602001600060ff168152509050809250505092915050565b60008060009054906101000a900473ffffffffffffffffffffffffffffffffffffffff1673ffffffffffffffffffffffffffffffffffffffff163373ffffffffffffffffffffffffffffffffffffffff16146105f457600080fd5b60001515600160008473ffffffffffffffffffffffffffffffffffffffff1673ffffffffffffffffffffffffffffffffffffffff16815260200190815260200160002060009054906101000a900460ff1615151461065157600080fd5b60018060008473ffffffffffffffffffffffffffffffffffffffff1673ffffffffffffffffffffffffffffffffffffffff16815260200190815260200160002060006101000a81548160ff0219169083151502179055508173ffffffffffffffffffffffffffffffffffffffff167f27aa0506e4da65b95bd4f61c697076f8c7dcb69b2c0937d11efa9ceaa3bf5a9560405160405180910390a260019050919050565b60008060009054906101000a900473ffffffffffffffffffffffffffffffffffffffff1673ffffffffffffffffffffffffffffffffffffffff163373ffffffffffffffffffffffffffffffffffffffff161461074f57600080fd5b60011515600160008473ffffffffffffffffffffffffffffffffffffffff1673ffffffffffffffffffffffffffffffffffffffff16815260200190815260200160002060009054906101000a900460ff161515146107ac57600080fd5b6000600160008473ffffffffffffffffffffffffffffffffffffffff1673ffffffffffffffffffffffffffffffffffffffff16815260200190815260200160002060006101000a81548160ff0219169083151502179055508173ffffffffffffffffffffffffffffffffffffffff167fee5d7d94405e51eec1bd7f59c36572787d25afb6c85e3a897bb782f08aac7d4460405160405180910390a260019050919050565b60006001151561085f33610ab8565b15151461086b57600080fd5b6000600560008873ffffffffffffffffffffffffffffffffffffffff1673ffffffffffffffffffffffffffffffffffffffff168152602001908152602001600020905060008160000154146108bf57600080fd5b6002548160000181905550338160010160006101000a81548173ffffffffffffffffffffffffffffffffffffffff021916908373ffffffffffffffffffffffffffffffffffffffff1602179055508383826002019190610920929190611124565b5060018660ff161461093157600080fd5b60008160030160008860ff1660ff16815260200190815260200160002060008760ff1660ff168152602001908152602001600020541461097057600080fd5b428160030160008860ff1660ff16815260200190815260200160002060008760ff1660ff1681526020019081526020016000208190555060018160040160006101000a81548160ff021916908360ff1602179055506001600260008282546109d8919061171d565b92505081905550600191505095945050505050565b60016020528060005260406000206000915054906101000a900460ff1681565b6060600360008360ff1660ff1681526020019081526020016000208054610a33906116e1565b80601f0160208091040260200160405190810160405280929190818152602001828054610a5f906116e1565b8015610aac5780601f10610a8157610100808354040283529160200191610aac565b820191906000526020600020905b815481529060010190602001808311610a8f57829003601f168201915b50505050509050919050565b6000600160008373ffffffffffffffffffffffffffffffffffffffff1673ffffffffffffffffffffffffffffffffffffffff16815260200190815260200160002060009054906101000a900460ff169050919050565b60008060005b600460009054906101000a900460ff1660ff168160ff161015610bc9576000600560008773ffffffffffffffffffffffffffffffffffffffff1673ffffffffffffffffffffffffffffffffffffffff16815260200190815260200160002060030160008660ff1660ff16815260200190815260200160002060008360ff1660ff1681526020019081526020016000205414610bb6576001819250925050610bed565b8080610bc190611688565b915050610b14565b5060006001600460009054906101000a900460ff16610be89190611773565b915091505b9250929050565b600060011515610c0333610ab8565b151514610c0f57600080fd5b6000600560008873ffffffffffffffffffffffffffffffffffffffff1673ffffffffffffffffffffffffffffffffffffffff168152602001908152602001600020600001541415610c5f57600080fd5b60018560ff161415610c7057600080fd5b6000600560008873ffffffffffffffffffffffffffffffffffffffff1673ffffffffffffffffffffffffffffffffffffffff1681526020019081526020016000206003016000600188610cc391906117aa565b60ff1660ff16815260200190815260200160002060008660ff1660ff168152602001908152602001600020541415610cfa57600080fd5b6000600560008873ffffffffffffffffffffffffffffffffffffffff1673ffffffffffffffffffffffffffffffffffffffff16815260200190815260200160002060030160008760ff1660ff16815260200190815260200160002060008660ff1660ff1681526020019081526020016000205414610d7757600080fd5b42600560008873ffffffffffffffffffffffffffffffffffffffff1673ffffffffffffffffffffffffffffffffffffffff16815260200190815260200160002060030160008760ff1660ff16815260200190815260200160002060008660ff1660ff168152602001908152602001600020819055508282600560008973ffffffffffffffffffffffffffffffffffffffff1673ffffffffffffffffffffffffffffffffffffffff1681526020019081526020016000206002019190610e3d929190611124565b5084600560008873ffffffffffffffffffffffffffffffffffffffff1673ffffffffffffffffffffffffffffffffffffffff16815260200190815260200160002060040160006101000a81548160ff021916908360ff1602179055506001905095945050505050565b600060011515610eb533610ab8565b151514610ec157600080fd5b828260036000600460009054906101000a900460ff1660ff1660ff1681526020019081526020016000209190610ef8929190611124565b506004600081819054906101000a900460ff1680929190610f1890611688565b91906101000a81548160ff021916908360ff160217905550506001905092915050565b60008054906101000a900473ffffffffffffffffffffffffffffffffffffffff1673ffffffffffffffffffffffffffffffffffffffff163373ffffffffffffffffffffffffffffffffffffffff1614610f9357600080fd5b60008054906101000a900473ffffffffffffffffffffffffffffffffffffffff1673ffffffffffffffffffffffffffffffffffffffff168173ffffffffffffffffffffffffffffffffffffffff161415610fec57600080fd5b600073ffffffffffffffffffffffffffffffffffffffff168173ffffffffffffffffffffffffffffffffffffffff16141561102657600080fd5b806000806101000a81548173ffffffffffffffffffffffffffffffffffffffff021916908373ffffffffffffffffffffffffffffffffffffffff1602179055508073ffffffffffffffffffffffffffffffffffffffff1660008054906101000a900473ffffffffffffffffffffffffffffffffffffffff1673ffffffffffffffffffffffffffffffffffffffff167f2ae143016adc0aa482e6ba5d9a350f3e3122aeb005ca4bf47d1d7b8221bce47260405160405180910390a350565b6040518060800160405280600073ffffffffffffffffffffffffffffffffffffffff1681526020016060815260200160608152602001600060ff1681525090565b828054611130906116e1565b90600052602060002090601f0160209004810192826111525760008555611199565b82601f1061116b57803560ff1916838001178555611199565b82800160010185558215611199579182015b8281111561119857823582559160200191906001019061117d565b5b5090506111a691906111aa565b5090565b5b808211156111c35760008160009055506001016111ab565b5090565b600080fd5b600080fd5b600073ffffffffffffffffffffffffffffffffffffffff82169050919050565b60006111fc826111d1565b9050919050565b61120c816111f1565b811461121757600080fd5b50565b60008135905061122981611203565b92915050565b600060ff82169050919050565b6112458161122f565b811461125057600080fd5b50565b6000813590506112628161123c565b92915050565b6000806040838503121561127f5761127e6111c7565b5b600061128d8582860161121a565b925050602061129e85828601611253565b9150509250929050565b6112b1816111f1565b82525050565b600081519050919050565b600082825260208201905092915050565b60005b838110156112f15780820151818401526020810190506112d6565b83811115611300576000848401525b50505050565b6000601f19601f8301169050919050565b6000611322826112b7565b61132c81856112c2565b935061133c8185602086016112d3565b61134581611306565b840191505092915050565b6113598161122f565b82525050565b600060808301600083015161137760008601826112a8565b506020830151848203602086015261138f8282611317565b915050604083015184820360408601526113a98282611317565b91505060608301516113be6060860182611350565b508091505092915050565b600060208201905081810360008301526113e3818461135f565b905092915050565b600060208284031215611401576114006111c7565b5b600061140f8482850161121a565b91505092915050565b60008115159050919050565b61142d81611418565b82525050565b60006020820190506114486000830184611424565b92915050565b600080fd5b600080fd5b600080fd5b60008083601f8401126114735761147261144e565b5b8235905067ffffffffffffffff8111156114905761148f611453565b5b6020830191508360018202830111156114ac576114ab611458565b5b9250929050565b6000806000806000608086880312156114cf576114ce6111c7565b5b60006114dd8882890161121a565b95505060206114ee88828901611253565b94505060406114ff88828901611253565b935050606086013567ffffffffffffffff8111156115205761151f6111cc565b5b61152c8882890161145d565b92509250509295509295909350565b600060208284031215611551576115506111c7565b5b600061155f84828501611253565b91505092915050565b600082825260208201905092915050565b6000611584826112b7565b61158e8185611568565b935061159e8185602086016112d3565b6115a781611306565b840191505092915050565b600060208201905081810360008301526115cc8184611579565b905092915050565b6115dd8161122f565b82525050565b60006040820190506115f86000830185611424565b61160560208301846115d4565b9392505050565b60008060208385031215611623576116226111c7565b5b600083013567ffffffffffffffff811115611641576116406111cc565b5b61164d8582860161145d565b92509250509250929050565b7f4e487b7100000000000000000000000000000000000000000000000000000000600052601160045260246000fd5b60006116938261122f565b915060ff8214156116a7576116a6611659565b5b600182019050919050565b7f4e487b7100000000000000000000000000000000000000000000000000000000600052602260045260246000fd5b600060028204905060018216806116f957607f821691505b6020821081141561170d5761170c6116b2565b5b50919050565b6000819050919050565b600061172882611713565b915061173383611713565b9250827fffffffffffffffffffffffffffffffffffffffffffffffffffffffffffffffff0382111561176857611767611659565b5b828201905092915050565b600061177e8261122f565b91506117898361122f565b92508260ff0382111561179f5761179e611659565b5b828201905092915050565b60006117b58261122f565b91506117c08361122f565b9250828210156117d3576117d2611659565b5b82820390509291505056fea26469706673582212202d1f83aff22c1b530950a75e83df5f39dd5367f8ec8ded02c6f96fe2ab7464d764736f6c634300080b0033",
  "immutableReferences": {},
  "source": "// SPDX-License-Identifier: GPL-3.0\npragma solidity ^0.8.10;\n\n// Credential : Issuer    Claim .\n// VC :        Credential.\n// VP : VC     . \n\n//   Issuer Credential .\n// claimCredential  Credential ,\n// getCredential   Credential   VC  .\n\nabstract contract OwnerHelper {\n    address private owner;\n\n  \tevent OwnerTransferPropose(address indexed _from, address indexed _to);\n\n  \tmodifier onlyOwner {\n\t\trequire(msg.sender == owner); // msg.sender owner  \n\t\t_;\n  \t}\n\n  \tconstructor() { //       \n\t    owner = msg.sender;\n  \t}\n\n    //     \n  \tfunction transferOwnership(address _to) onlyOwner public { \n        require(_to != owner);\n        require(_to != address(0x0));\n    \towner = _to;\n    \temit OwnerTransferPropose(owner, _to);\n  \t}\n}\n\n\n// OwnerHelper(   )  \nabstract contract IssuerHelper is OwnerHelper {\n    mapping(address => bool) public issuers;\n\n    event AddIssuer(address indexed _issuer);\n    event DelIssuer(address indexed _issuer);\n\n    modifier onlyIssuer {\n        require(isIssuer(msg.sender) == true); //   issuer  \n        _;\n    }\n\n    constructor() { //      \n        issuers[msg.sender] = true; \n    }\n\n    //  (_addr) issuer \n    function isIssuer(address _addr) public view returns (bool) {\n        return issuers[_addr];\n    }\n\n    // Issuer . onlyOwner           .\n    function addIssuer(address _addr) onlyOwner public returns (bool) {\n        require(issuers[_addr] == false); //   true  ? \n        issuers[_addr] = true;\n        emit AddIssuer(_addr);\n        return true;\n    }\n\n    // Issuer . onlyOwner           .\n    function delIssuer(address _addr) onlyOwner public returns (bool) {\n        require(issuers[_addr] == true);\n        issuers[_addr] = false;\n        emit DelIssuer(_addr);\n        return true;\n    }\n}\n\n\ncontract CredentialBox is IssuerHelper {\n    uint256 private idCount;\n    mapping(uint8 => string) private vaccineEnum; //  .    .\n    uint8 vaccineCnt; //   \n\n\n    // VC   .\n    struct Credential{\n        uint256 id; // index   idCount.\n        address issuer; // .    ,      .\n        string value; //     .    ,  , ,   JSON  .\n        mapping(uint8 => mapping(uint8 => uint256)) vaccineInfo;  //   mapping(n => (vaccineType => date) )\n        uint8 lastVaccineNum;\n    }\n\n    struct Presentation{ //      \n        address issuer;\n        string value;\n        string vaccineType;\n        uint8 vaccineNum; \n    }\n\n    mapping(address => Credential) private credentials;\n\n    constructor() {\n        idCount = 1;\n        vaccineEnum[0] = \"YC\"; // \n        vaccineEnum[1] = \"MDN\"; // \n        vaccineEnum[2] = \"HWZ\"; // \n        vaccineEnum[3] = \"AZ\"; // \n        vaccineCnt = 4;\n    }\n\n    //    (issuer)  (_humanAddress)  (claim)  .\n    function claimCredential(address _humanAddress, uint8 _vaccineNum, uint8 _vaccineType, string calldata _value) onlyIssuer public returns(bool){\n        Credential storage credential = credentials[_humanAddress];\n        require(credential.id == 0);\n        credential.id = idCount;\n        credential.issuer = msg.sender;\n        credential.value = _value;\n        \n        require(_vaccineNum == 1); // ! 1    (    ), 2    .\n        require(credential.vaccineInfo[_vaccineNum][_vaccineType] == 0);\n        credential.vaccineInfo[_vaccineNum][_vaccineType] = block.timestamp;\n        credential.lastVaccineNum = 1;\n\n        idCount += 1;\n\n        return true;\n    }\n\n    //  (_humanAddress)     .\n    // mapping   public     .\n    // function getCredential(address _humanAddress) public view returns (Credential memory){\n    //     return credentials[_humanAddress];\n    // }\n\n    //     credential    ->    \n    function checkVaccineCredential(address _humanAddress, uint8 _vaccineNum) public view returns(Presentation memory){\n        require(credentials[_humanAddress].id != 0); //     \n        require(_vaccineNum <= credentials[_humanAddress].lastVaccineNum); //        .\n        string memory vaccineType;\n\n        for(uint8 i=0; i<vaccineCnt; i++){\n            if(credentials[_humanAddress].vaccineInfo[_vaccineNum][i] != 0){\n                vaccineType = getVaccineType(i);\n                break;\n            }\n        }\n\n        Presentation memory presentation = Presentation(\n            credentials[_humanAddress].issuer,\n            credentials[_humanAddress].value,\n            vaccineType,\n            0\n        );\n\n        return presentation;\n    }\n    \n\n    function findVaccineType(address _humanAddress, uint8 _vaccineNum) public view returns(bool, uint8){\n        for(uint8 i=0; i<vaccineCnt; i++){\n            if(credentials[_humanAddress].vaccineInfo[_vaccineNum][i] != 0){\n                return(true, i);\n            }\n        }\n        return (false, vaccineCnt+1); //        \n    }\n\n\n    // VaccineType  .\n    function addVaccineType(string calldata _vaccineType) onlyIssuer public returns (bool) {\n        //  String  \n        // 1. byte   null \n        // 2. keccak256       \n        vaccineEnum[vaccineCnt] = _vaccineType;\n        vaccineCnt++;\n        return true;\n    }\n\n    //   vaccine type \n    function getVaccineType(uint8 _type) public view returns (string memory) {\n        return vaccineEnum[_type];\n    }\n\n    // n   credential \n    function updateCredential(address _humanAddress, uint8 _vaccineNum, uint8 _vaccineType, string calldata _value) onlyIssuer public returns(bool){\n        require(credentials[_humanAddress].id != 0); //      .\n        require(_vaccineNum != 1); //  n       .\n        require(credentials[_humanAddress].vaccineInfo[_vaccineNum-1][_vaccineType] != 0); // n-1    .\n        require(credentials[_humanAddress].vaccineInfo[_vaccineNum][_vaccineType] == 0); //  n     .\n        credentials[_humanAddress].vaccineInfo[_vaccineNum][_vaccineType] = block.timestamp;\n        credentials[_humanAddress].value = _value; //   \n        credentials[_humanAddress].lastVaccineNum = _vaccineNum; //    \n\n        return true;\n    }\n\n}",
  "sourcePath": "/Users/seomingyun/VSworkspace/BEB_space/section4/DID_graduate/contracts/CredentialBox.sol",
  "compiler": {
    "name": "solc",
    "version": "0.8.11+commit.d7f03943.Emscripten.clang"
  },
  "schemaVersion": "3.4.4",
  "updatedAt": "2022-01-28T11:19:25.389Z",
  "networkType": "ethereum",
  "devdoc": {
    "kind": "dev",
    "methods": {},
    "version": 1
  },
  "userdoc": {
    "kind": "user",
    "methods": {},
    "version": 1
  }
}